:020000040800F2
:10000000E0090020A1010008BD23000869020008E2
:10001000B923000815040008792E0008000000002C
:100020000000000000000000000000002D25000876
:100030001904000800000000F30100083125000841
:10004000BB010008BB010008BB010008BB010008A0
:10005000BB010008BB010008BB010008BB01000890
:10006000BB010008BB010008BB010008BB01000880
:10007000BB010008BB010008BB010008BB01000870
:10008000BB010008BB010008BB010008BB01000860
:10009000BB010008BB010008BB010008BB01000850
:1000A000BB010008BB010008BB010008BB01000840
:1000B000BB0100080000000000000000BB010008B8
:1000C000BB010008BB010008BB010008BB01000820
:1000D000BB0100086D2E0008BB010008BB01000831
:1000E000BB010008BB010008000000000000000088
:1000F0000000000000000000000000000000000000
:1001000000000000BB01000800000000BB01000867
:100110000000000000000000BB010008BB01000857
:10012000BB010008BB010008BB010008BB010008BF
:10013000BB010008000000000000000000000000FB
:10014000BB010008BB010008BB0100080000000063
:10015000BB010008BB010008BB010008BB0100088F
:10016000BB010008BB010008BB0100080000000043
:10017000BB010008BB0100080000000000000000F7
:10018000BB010008BB010008BB010008DFF80CD070
:1001900000F0F8F800480047A9030008E009002033
:1001A0000648804706480047FEE7FEE7FEE7FEE711
:1001B000FEE7FEE7FEE7FEE7FEE7FEE78D26000826
:1001C0008D010008EFF3108072B6704780F310883D
:1001D0007047324A1368012B04D04FF001031360BB
:1001E0002F4A10602F4A11602F484FF08051016054
:1001F0007047EFF3108272B62848016891B14FF052
:10020000000101602648016829B1EFF3098121E965
:10021000F00F00680160234909680968B1E8F00F30
:1002200081F3098882F310884EF0040E70471D494F
:1002300008601B494FF00000086018494FF00100AA
:1002400008601A481A49D0F8002041EA020101600A
:1002500015484FF08051016016480068006880F32F
:10026000088861B662B670471EF0040F0CBFEFF34A
:100270000880EFF3098020E9F00F40F804ED1EF04C
:10028000040F0CBF80F3088880F3098800B503F0E1
:1002900057FA5DF804EB4EF0040E7047D0050020CD
:1002A000C4040020CC04002004ED00E020ED00E0B8
:1002B0000000FFFF08ED00E02DE9F05F054600209B
:1002C00092469B4688460646814640241BE02846C7
:1002D00041464746224600F044F853465A46C01A63
:1002E000914110D311461846224600F02BF82D1AE2
:1002F00067EB01084F4622460120002100F022F85A
:1003000017EB00094E41201EA4F10104DFDC484632
:1003100031462A46434600F000B830BCBDE8C09FD5
:10032000D2B201E000F8012B491EFBD27047002237
:10033000F6E710B513460A4604461946FFF7F0FFE4
:10034000204610BD202A04DB203A00FA02F10020EA
:1003500070479140C2F1200320FA03F31943904003
:100360007047202A04DB203A21FA02F0002170476E
:1003700021FA02F3D040C2F120029140084319460D
:1003800070470000064C074D06E0E06840F00103AE
:1003900094E8070098471034AC42F6D3FFF7FAFE12
:1003A000284F0008484F000810B584B0FFF70AFF37
:1003B00003F068F903F040FC03F042FD03F0FAFC9F
:1003C00040F248324FF48071C2F2000240F24844D9
:1003D0000220CDE90021C2F2000444F6846143F218
:1003E00065024FF0140C0290C0F60001C0F6000246
:1003F00020460023CDF80CC003F092FD204603F008
:1004000021FE03F025FD03F065FD03F005FD00204E
:1004100004B010BDFEE7000070470000EFF310804D
:1004200072B600BFFEE70000014690F825000228E2
:1004300018D10868D1E910C3026822F00E020260E8
:10044000026822F00102026003F01C00012202FA9D
:1004500000F0CCF80400002081F82520002281F86B
:10046000242070470420C8630120002281F8242042
:100470007047000080B590F82510022922D101684C
:10048000D0F838E0D0E910C30A68BEF1000F22F0BE
:100490000E020A600A6822F001020A6003F01C01E1
:1004A0004FF0010202FA01F1CCF804104FF0000104
:1004B00080F8252080F8241001D0F047002108465C
:1004C00080BD00BF0421C163012080BD2DE9F04F34
:1004D00084B08E4641F20002C4F60002DEF800400D
:1004E00007219042019008BF0421002C009100F0E8
:1004F000D7800198002500F138424FEAB2230098D6
:10050000012700264FF00008042B38BF1846009042
:10051000CDF808E00EE000BFDEF8004008F1010869
:1005200034FA07F106F1020607F1010705F10405A7
:1005300000F0B680A7F1010A012000FA0AF314EADC
:100540000309E9D0DEF804C00CF0030BABF10104A1
:10055000012C17D80198744681680322E468B240E0
:100560009143B4402143816041684FEA480E99436A
:10057000CCF3001303FA0AF30446D0431943616035
:100580000CE000BF0321B140019CC843BBF1030F45
:10059000B64603D1B6464FF0030B23E0E168029A5A
:1005A00001409368BBF1020F03FA0EF341EA030125
:1005B000E16017D16FF0030101EA5A01214405F00F
:1005C0001C040F23D1F820C003FA04FB13692CEAA2
:1005D0000B0CA34043EA0C03019C0B62D2F804C04D
:1005E0000CF0030B21680BFA0EF20140114321605D
:1005F000DDF808E01CF4403F8ED041F26000C4F208
:100600000200016840F2004C41F001010160016804
:10061000C4F2010C01F00101039103992AF00301D6
:100620004FF6084A6144CFF6FF7A05F00C030F201D
:1006300051F80A2000FA03F40098A24300FA03F3E9
:100640001A4341F80A20DCF80810DEF8042041EAD9
:10065000090340F20C40D40258BF21EA0903CCF848
:100660000830C4F201000168940241EA090358BF4E
:1006700021EA09030360DCF80410940341EA09034A
:1006800058BF21EA0903CCF80430DCF80010D2038B
:1006900041EA090358BF21EA0903CCF800303BE7DF
:1006A00004B000F000B830BCBDE8C08F40F2D850B4
:1006B000C2F200000068704790F84120202A03D160
:1006C00090F84020012A01D102207047242280F8AE
:1006D00041200268136823F001031360136823F4B8
:1006E00080531360136819431160116841F00101D0
:1006F0001160202180F84110002180F84010084648
:100700007047000090F84120202A03D190F8402043
:10071000012A01D102207047242280F8412002687A
:10072000136823F001031360136823F4706343EA32
:1007300001211160116841F001011160202180F850
:100740004110002180F8401008467047002804BF7F
:100750000120704710B5044690F8410028B90020E8
:1007600084F84000204600F049F8242084F8410035
:1007700094E80910E2680168012A21F00101016092
:1007800023F070610161816821F40041816003D12F
:100790004CF40041816009E04CF40441022A81607C
:1007A00004D1416841F4006103E000BF416821F4D5
:1007B00000614160416804F1100C41F0007141F4A6
:1007C00000414160C16821F40041C1609CE80E1005
:1007D000114341EA0321C160216A41EA0C01016031
:1007E000016841F00101016000202021606484F86B
:1007F0004110206384F8420010BD000010B59EB087
:10080000044600201D90CDE91B00CDE9190002A887
:100810005C21FFF78CFD206845F60001C4F2000161
:10082000884237D045F20041C4F20001884262D1CB
:100830004020029002A800F04BF9002818BFFFF7F3
:10084000EDFD41F24C04C4F20204206819A940F005
:1008500002002060206800F0020001900198C02092
:10086000199012201A9000201B9003201C90042045
:100870001D9040F20040C4F60000FFF727FEE0683C
:1008800040F40010E060E06800F40010019001986E
:100890001EB010BD8020029002A800F019F90028B7
:1008A00018BFFFF7BBFD41F24C04C4F202042068FC
:1008B00019A940F002002060206800F002000190B9
:1008C00001984FF44060199012201A9000201B905C
:1008D00003201C9004201D9040F20040C4F600004C
:1008E000FFF7F4FDE06840F48000E060E06800F4A9
:1008F0008000019001981EB010BD000080B503205B
:1009000000F088F80F2000F009F800281CBF012033
:1009100080BD00F029F8002080BD000070B540F2D5
:100920000006C2F200063178E1B1044640F2080048
:10093000C2F200004FF47A720068B2FBF1F1B0FB32
:10094000F1F001F073F80F2C4FF0010508D838B919
:100950004FF0FF3021460022002500F02FF8746090
:10096000284670BD012070BD82B041F25800C4F22B
:100970000200816841F001018160816801F001019C
:1009800001910199016841F080510160006800F017
:1009900080500090009802B070470000002848BFC7
:1009A000704700F01F01012202FA01F14EF200121D
:1009B0004009CEF2000242F82010704710B54EF602
:1009C0000C5CCEF2000CDCF80030C3F3022E8EF08B
:1009D0000704042C28BF0424BEF103034FF0FF3E9C
:1009E0000EFA04F438BF0023A14399400EFA03F332
:1009F0009A43114300F00F02043A624409010C3299
:100A000000F16043B0F1FF3FC8BF03F564421170CD
:100A100010BD00004EF60C51CEF200010A684FF6F0
:100A2000FF031A4060F30A2242F0806040F0FD703C
:100A30000860704747F20001C4F200010A68B0F58F
:100A4000007F02F4C06031D1B0F5007F2CD008687F
:100A5000012262F34A20086040F20800C2F200005E
:100A60000068322250434DF68362C4F21B32A0FB71
:100A70000202900C4A69520511D5421C0FD04A69F6
:100A800052050CD558B14A69520508D5012806D03F
:100A90004A69520503D50228A0F10400EAD1486949
:100AA000400544BF0320704700207047B0F5806FB9
:100AB000FAD00868022262F34A20086000207047DA
:100AC00047F20000C4F20000006800F4C060704704
:100AD0002DE9F04381B00446407841F288070007D1
:100AE000C4F2020721D5606C80B1B0F5400F15D07B
:100AF000B0F5000F40F02A8157F87C0C40F48030AC
:100B000047F87C0C4FF400000AE000BF201D0021D4
:100B100001F056FC814650B9606C01E04FF4400092
:100B2000396821F44001084338604FF00009A0788B
:100B3000800751D557F8300C10F080580BD157F87A
:100B4000300C40F0805047F8300C57F8300C00F073
:100B500080500090009847F20005C4F20005286814
:100B600040F480702860FFF7A1FD06462868C005A4
:100B700008D4FFF79BFD801B0228F7D94FF003092B
:100B800021E000BFB9F1000F1DD1B86810F440702A
:100B900011D0A16D88420BD0B868B96820F44070BC
:100BA00041F48031B960B96821F48031B960B8602E
:100BB000C00740F0D380B868A16D20F440700843AE
:100BC0004FF00009B860B8F1000F05D157F8300CAC
:100BD00020F0805047F8300C2168C80712D18807F0
:100BE00018D448071ED4880624D488052AD448057A
:100BF00030D4480636D408063CD4C80542D408038D
:100C000048D459E03868226A20F003001043386065
:100C10008807E6D53868626A20F00C001043386017
:100C20004807E0D53868A26A20F0300010433860E9
:100C30008806DAD53868E26A20F4406010433860EC
:100C40008805D4D53868E26B20F440201043386022
:100C50004805CED53868226C20F440101043386027
:100C60004806C8D53868226B20F4405010433860DD
:100C70000806C2D53868626B20F4404010433860E3
:100C8000C805BCD53868A26B20F4403010433860EA
:100C9000080311D53A68A06C22F040620243B0F11B
:100CA000806F3A601ED0B0F1006F05D157F87C0C10
:100CB00040F4801047F87C0C480327D53A68E06C74
:100CC00022F040620243B0F1806F3A6016D0B0F17A
:100CD000006F1BD157F87C0C40F4801047F87C0C57
:100CE00014E000BF201D012101F06AFB21680028EB
:100CF00018BF81464803E1D408E000BF201D012150
:100D000001F05EFB2168002818BF8146480410D519
:100D10003868226D20F040501043B2F1805F386097
:100D200007D1201D022101F04BFB2168002818BFCC
:100D30008146080405D53868616D20F0804008437D
:100D40003860484601B0BDE8F08300BF4FF00109AC
:100D5000A07880073FF5EEAE3EE700BFFFF7A6FCA8
:100D6000064641F288354FF0030900BFB868800796
:100D70003FF521AFFFF79AFC801BA842F6D922E786
:100D80002DE9F04381B000286BD042F20008C4F294
:100D900002080446D8F800000D4600F0070088421B
:100DA0000CD2D8F8000020F007002843C8F8000053
:100DB000D8F8000000F00700A84252D1206841F2A4
:100DC000080910F00201C4F202090DD0A268D9F896
:100DD000003003F0F0039A4206D9D9F8003023F02E
:100DE000F0031A43C9F80020C2072DD169B1A168E8
:100DF000D9F8002002F0F002914206D2D9F8002082
:100E000022F0F0021143C9F80010D8F8001001F0E8
:100E10000701A9420CD9D8F8001021F00701294395
:100E2000C8F80010D8F8001001F00701A94218D145
:100E300041071BD4000723D4D9F80000D9F80410C7
:100E400010F00C002CD131E0606800285ED0022840
:100E500000F07E80032840F0818059F8081C890149
:100E600058D4012001B0BDE8F08300BFD9F80010CC
:100E7000E26821F4E0611143C9F800100007DBD5F6
:100E8000D9F80000216920F4605040EAC100C9F897
:100E90000000D9F80000D9F8041010F00C0005D0BB
:100EA0000C2829D101F00301012925D159F8081C8A
:100EB000090703D4D9F88C10090A02E059F8081C74
:100EC000090944F6445201F00F01C0F6000252F83D
:100ED000211000280A4618BF00220C2871D1D9F829
:100EE000040000F00300022846D0032804BF41F2AA
:100EF0000021C0F27A0143E0042857D008285BD1D2
:100F000041F20022C0F27A025BE000BF59F8081CEF
:100F10008907A6D5D9F8001021F003010843C9F8C4
:100F20000000FFF7C3FB064641F28837D9F80000FE
:100F3000616800F00C00B0EB810F15D0FFF7B6FB35
:100F4000801BB842F2D9032001B0BDE8F08300BF96
:100F500059F8081C89037FF584AFDBE759F8081CB2
:100F600049057FF57EAFD5E7206800F00201002932
:100F70007FF43DAF49E700BF42F20041C0F2F40107
:100F8000D9F80400D9F80420C0F30210C2F30622F5
:100F90005143D9F804200130B1FBF0F0C2F34161B4
:100FA000022202EB4101B0FBF1F20AE042F2004200
:100FB000C0F2F40205E000BF002200210C283FF43B
:100FC0008EAFD9F8000044F62A51C0F30310C0F6E2
:100FD0000001085C00F01F0022FA00F140F204005A
:100FE000C2F2000040F208020068C2F20002116082
:100FF00001B0BDE8F043FFF791BC000040F20800EB
:1010000041F20801C2F20000C4F20201006809685E
:1010100044F63A52C1F30221C0F60002515C01F0DD
:101020001F01C8407047000040F2080041F208016B
:10103000C2F20000C4F202010068096844F63A52A4
:10104000C1F3C221C0F60002515C01F01F01C8408B
:101050007047000041F20C01C4F2020151F8040C87
:1010600010F00C02086805D00C2A29D100F003000A
:10107000012825D151F80C0C000703D4D1F88800C1
:10108000000A02E051F80C0C000944F6445300F049
:101090000F00C0F6000353F82030002A184618BF8E
:1010A00000200C2A18BF7047086800F003000228CF
:1010B00010D0032804BF41F20023C0F27A030DE0F0
:1010C000042A1FD0082A23D141F20020C0F27A005E
:1010D000704700BF42F20043C0F2F40308680A6898
:1010E000C0F30210C2F30622096801305A43B2FB72
:1010F000F0F0C1F34161022202EB4101B0FBF1F0DB
:10110000704700BF42F20040C0F2F400704700BFD9
:1011100000200023C5E700002DE9F04383B000283C
:1011200000F0388341F200060446C4F20206B068BB
:10113000F168227800F00C09D00601F003081DD4F4
:101140002078C00700F08180B9F1080F76D0B9F19E
:101150000C0F08BFB8F1030F70D06068B0F5803F86
:1011600007D0B0F5A02F40F04B82306840F48020CB
:101170003060306840F4803030604CE2B9F1000FEC
:101180001ED0B9F10C0F08BFB8F1010F18D0A1693A
:101190003068002900F0968140F001003060FFF7D0
:1011A00085FA05463068800700F19E81FFF77EFAD8
:1011B000401B02284FF00300F4D903B0BDE8F083D0
:1011C0003068800703D5A069002800F0E382256A13
:1011D0003068000700F13E81D6F89400000900F065
:1011E000F000854200F23C813068B9F1000F40F018
:1011F00008003060306820F0F00040EA0500306000
:101200007068E16920F47F4040EA0120706040F09E
:10121000AF82B06DC00000F14B82B06D40F08050E5
:10122000B065B06D00F0805002900298FFF748FC66
:10123000B16D21F08051B1653CE200BF30688003A0
:1012400003D56068002800F0A582207880072DD59E
:10125000B9F1040F1CD0B9F10C0F08BFB8F1020F9F
:1012600016D0E1683068002900F0E48140F4807015
:101270003060FFF71BFA0546306840050FD4FFF7D2
:1012800015FA401B02284FF00300F5D995E700BF7F
:101290003068400503D5E068002800F07B82706864
:1012A000216920F0F85040EA016070602078000762
:1012B00060D42078400775D42078800600F1AE8095
:1012C000A06A002800F00C83022840F01F81F0681B
:1012D000E16A00F003028A4240F03081226B6FF035
:1012E0000F0300F0700103EB0212914240F02681DF
:1012F000616B00F4FE42B2EB012F40F01F81A16B45
:1013000000F07842B2EBC16F40F01881E26B00232D
:10131000CFF6E07303EB025200F4C0016FF3140246
:10132000914240F00B81216C4FF07E4202EB016153
:1013300000F0C06001F07E41884240F0FF803068DC
:10134000800100F1CD82306840F080703060F0683C
:1013500040F08070F060FFF7A9F904463068800122
:1013600000F1BE82FFF7A2F9001B02284FF0030034
:10137000F4D922E76169D6F89400002900F08C8046
:1013800040F00100C6F89400FFF790F9054600BF51
:10139000D6F8940080078CD4FFF788F9401B022808
:1013A000F6D929E1B06D10F0805808D1B06D40F049
:1013B0008050B065B06D00F080500090009847F20A
:1013C0000007C4F200073868C00513D4386840F439
:1013D00080703860FFF76AF9054600BF3868C005BD
:1013E00008D4FFF763F9401B02284FF00300F5D93A
:1013F000E3E600BFA068012808D0052840F0DE80A1
:10140000D6F8900040F00400C6F89000D6F890009E
:1014100040F00100C6F89000DFE000BF616AD6F836
:101420009800002900F0B48040F00100C6F8980050
:10143000FFF73CF9054600BFD6F8980080073FF556
:101440003FAFFFF733F9401B02284FF00300F3D9F9
:10145000B3E600BF306800F0F00085427FF6C4AE0E
:10146000B06DC00000F18680B06D40F08050B06576
:10147000B06D00F0805001900198FFF721FBB16D35
:1014800021F08051B165B0F5007F79D0802D40F218
:10149000E3800320EBE000BF20F00100C6F89400D9
:1014A000FFF704F9054600BFD6F8940080077FF5E2
:1014B00000AFFFF7FBF8401B02284FF00300F3D901
:1014C0007BE600BF20F001003060FFF7EFF8054633
:1014D000306880077FF534AEFFF7E8F8401B02283C
:1014E0004FF00300F4D968E6306840F0080030603F
:1014F0003068D4E9072120F0F000084330607068BC
:1015000020F47F4040EA0220706019E6B9F10C0F28
:1015100000F04081306820F080703060FFF7C6F83E
:10152000044600BF3068800140F1EE80FFF7BEF84E
:10153000001B02284FF00300F4D93EE6B9F10C0F6E
:1015400000F028813068400100F12481306820F0EB
:1015500080703060FFF7AAF805463068800140F1DE
:101560008181FFF7A3F8401B02284FF00300F4D954
:1015700023E600BFFFF7A4FAB0F5007F7FF486AF43
:10158000812D73D30120A02D88BF02206FE000BF02
:1015900020F00100C6F89800FFF788F8054600BF64
:1015A000D6F8980080077FF58BAEFFF77FF8401BD9
:1015B00002284FF00300F3D9FFE500BFD6F89010E2
:1015C000002821F00101C6F89010D6F8901021F003
:1015D0000401C6F8901000F07B80FFF767F805461D
:1015E00041F28837D6F89000800700F18380FFF73A
:1015F0005DF8401BB842F5D9032003B0BDE8F08385
:101600003168002821F480313160316821F4802173
:10161000316000F08580FFF749F8054630688003A7
:101620003FF513AEFFF742F8401B64284FF003006C
:10163000F4D9C2E520F480703060FFF737F8054632
:10164000306840057FF532AEFFF730F8401B0228C6
:101650004FF00300F4D9B0E5A5F17000B0FA80F0C6
:101660004009802D08BF022001E000BF002042F2A7
:101670000001C4F202010A6822F0070202440A6073
:10168000096801F00701814240F08480306840F031
:10169000080030603068D4E9072120F0F0000843EA
:1016A0003060706820F47F4040EA022070605FE0A4
:1016B000FFF706FAB0F5007F06D1812D40D3012057
:1016C000A02D88BF022045E0802D3BD9032041E0BA
:1016D000FEF7ECFF054641F28837D6F89000800708
:1016E00008D5FEF7E3FF401BB8424FF00300F4D9E2
:1016F00063E500BFB8F1000F7FF4DEADB06D20F000
:101700008050B065D8E500BFF0684FF6FC71CFF6A9
:10171000EE610840F060002003B0BDE8F08300BF38
:10172000FEF7C4FF0546306880037FF58EADFEF7F7
:10173000BDFF401B64284FF00300F4D93DE500BF16
:10174000002007E0A5F17000B0FA80F04009802D7C
:1017500008BF022042F20001C4F202010A6822F02E
:10176000070202440A60096801F00701814211D1B1
:10177000B068F16810F00C0005D00C282AD101F0F7
:101780000301012926D13168090707D4D6F894103E
:10179000090A05E0012003B0BDE8F08331680909BA
:1017A00044F6445201F00F01C0F6000252F8211035
:1017B00000280A4618BF00220C2837D1F06800F034
:1017C0000300022810D0032804BF41F20021C0F218
:1017D0007A010DE004281FD0082823D141F200220D
:1017E000C0F27A0222E000BF42F20041C0F2F401EE
:1017F000F068F268C0F30210C2F306225143F268A7
:101800000130B1FBF0F0C2F34161022202EB410171
:10181000B0FBF1F20AE000BF42F20042C0F2F40273
:1018200004E000BF002200210C28C7D0B06844F6B5
:101830002A51C0F30310C0F60001085C00F01F003D
:1018400022FA00F140F20400C2F2000040F2080265
:101850000068C2F200021160FFF760F800287FF410
:10186000ACAC6DE4F06848F28C01C0F29D1104F15B
:101870002C0700EA010C8ECF6FF00F00D4E90F5453
:1018800000EB02100022CFF6E07241EA0C0102EBFD
:10189000055208436FF314024FF07E4540EA0320DF
:1018A00005EB0465104305F07E4540EAC760284318
:1018B000F060306840F080703060F06840F0807018
:1018C000F060FEF7F3FE04463068800108D4FEF7AE
:1018D000EDFE001B02284FF00300F5D96DE400BFB8
:1018E000002003B0BDE8F083002804BF012070474A
:1018F000B0B50446406A28B10020206104F114000C
:1019000006E000BF6068B0F5827F03D004F11C00E0
:10191000002101600025A56294F85D0020B92046F1
:1019200084F85C5000F04EF8022084F85D002068D6
:10193000D4F80CE00268BEF5E06F22F040020260CD
:101940004EF4006298BF0125B2F5706F1CBF0023F2
:10195000A3624FEA053CD4E90135D4E9042103F43C
:10196000827305F404452B4402F002021A44A36971
:1019700001F00101E569114403F40072114405F01E
:101980003802256A114405F08002A56A114405F465
:101990000052114301600421626A0EF4706501EA8D
:1019A0001341636B45EA0C0502F01002294303F072
:1019B000080311431943416000200121206684F887
:1019C0005D10B0BD80B586B0006843F20001C4F27E
:1019D0000101884202D006B080BD00BF41F24C0038
:1019E000C4F20200416941F480514161416901F44E
:1019F000805101910199016841F001010160006885
:101A000001A900F0010001900198C220019002207C
:101A100002900020039003200490052005904FF0D1
:101A20009040FEF753FD06B080BD0000411E00202F
:101A3000B0EB116F1CBF012070474EF21002CEF2C6
:101A4000000251604EF62351CEF20001F0230B70DC
:101A500007219060116070477047000070470000D8
:101A600070470000B0B502680446D069156840F6BA
:101A70002F0193680140202905F0200E0AD1BEF104
:101A8000000F07D0A16E00293CD02046BDE8B04031
:101A9000084700BF40F60F01084209D040F220116C
:101AA000C0F2004103F0010C294011EB0C0115D1EB
:101AB000216E012905D110F0100118BF15F0100199
:101AC00022D1C10214D513F4800111D04FF480113A
:101AD00020461162BDE8B040FFF7C0BFC10718BF84
:101AE00015F4807140F09881810700F19F81A8E191
:101AF000010640F1978015F0800100F09380E16EBF
:101B00000029C2D1B0BD00BF10201062906840060D
:101B100000F1C080B4F85800B4F85A10B4F85A3044
:101B2000002B1CBF401A5FEA0041EBD052E8001FB7
:101B3000226821F4907142E80013FBB1216851E85A
:101B4000001F226821F4907142E80013B3B12168AC
:101B500051E8001F226821F4907142E800136BB134
:101B6000216851E8001F226821F4907142E80013B7
:101B700023B1216851E8001FDAE700BF216851E86E
:101B8000021F226821F0010142E80213DBB1216843
:101B900051E8021F226821F0010142E8021393B1CB
:101BA000216851E8021F226821F0010142E8021376
:101BB0004BB1216851E8021F226821F0010142E87F
:101BC0000213002BDAD12021C4F8801000212166F5
:101BD000A166216851E8001F226821F0100142E847
:101BE0000013DBB1216851E8001F226821F01001C9
:101BF00042E8001393B1216851E8001F226821F0E8
:101C0000100142E800134BB1216851E8001F22681F
:101C100021F0100142E80013002BDAD1022281B238
:101C200015E200BF40067FF56DAF15F0400008BF1C
:101C3000B0BD52E8000F00BF216820F0400041E82D
:101C40000002002A00F0E881206850E8000F2168B7
:101C500020F0400041E80002002A00F0DD81206809
:101C600050E8000F216820F0400041E80002002AFF
:101C700000F0D281206850E8000F216820F0400079
:101C800041E80002002A00F0C781206850E8000FF8
:101C9000D2E700BF606FD0F800C0DCF80430B4F8C1
:101CA000580099B2002900F0C981814280F0C681B4
:101CB000A4F85A30DCF80000800600F19F8052E85A
:101CC000000F216820F4807041E80002F2B1206822
:101CD00050E8000F216820F4807041E80002AAB1AA
:101CE000206850E8000F216820F4807041E800026D
:101CF00062B1206850E8000F216820F4807041E84C
:101D000000021AB1206850E8000FDAE7206850E8B6
:101D1000020F216820F0010041E80202BAB32068F6
:101D200050E8020F216820F0010041E8020272B37E
:101D3000206850E8020F216820F0010041E802020B
:101D40002AB3206850E8020F216820F0010041E822
:101D50000202002ADAD11AE0206850E8020F216856
:101D600020F0400041E80202DAB1206850E8020F9A
:101D7000216820F0400041E8020292B1206850E85A
:101D8000020F216820F0400041E802024AB12068B9
:101D900050E8020F216820F0400041E80202002ACA
:101DA000DAD12020C4F8800000202066206850E8A6
:101DB000000F216820F0100041E80002DAB120682D
:101DC00050E8000F216820F0100041E8000292B1B5
:101DD000206850E8000F216820F0100041E8000260
:101DE0004AB1206850E8000F216820F0100041E857
:101DF0000002002ADAD1606FFEF716FB022060664F
:101E0000B4F85800B4F85A10401A81B22046BDE820
:101E1000B040FFF721BE00BF01211162D4F8841049
:101E200041F00101C4F8841081070AD5BCF1000F0C
:101E300007D002211162D4F8841041F00401C4F8E3
:101E4000841041070AD5BCF1000F07D004211162AC
:101E5000D4F8841041F00201C4F8841001070AD5B7
:101E60005EEA0C0107D008211162D4F8841041F019
:101E70000801C4F8841001050BD515F0806108D065
:101E80004FF400611162D4F8841041F02001C4F8CD
:101E90008410D4F8841000293FF434AE10F02000F0
:101EA00018BFBEF1000F40F0C180D4F884009168E3
:101EB00000F0280001F04001401807D12046FFF74C
:101EC000CFFD0020C4F88400B0BD00BF52E8000F71
:101ED000216820F4907041E80002D2B3206850E8F5
:101EE000000F216820F4907041E800028AB3206856
:101EF00050E8000F216820F4907041E8000242B3DE
:101F0000206850E8000F216820F4907041E800023A
:101F1000FAB1206850E8000FDAE700BF206850E807
:101F2000020F216820F0010041E80202DAB12068C6
:101F300050E8020F216820F0010041E8020292B14E
:101F4000206850E8020F216820F0010041E80202F9
:101F50004AB1206850E8020F216820F0010041E8F2
:101F60000202002ADAD1206E012824D1206850E82C
:101F7000000F216820F0100041E80002DAB120686B
:101F800050E8000F216820F0100041E8000292B1F3
:101F9000206850E8000F216820F0100041E800029E
:101FA0004AB1206850E8000F216820F0100041E895
:101FB0000002002ADAD120200021C4F88000216626
:101FC0002068A166816849065AD550E8020F216849
:101FD00020F0400041E80202002A3FD0206850E88B
:101FE000020F216820F0400041E80202B2B32068ED
:101FF00050E8020F216820F0400041E802026AB375
:10200000206850E8020F216820F0400041E80202F9
:1020100022B32068D9E700BF20200021E0672046D6
:10202000E166BDE8B04000F0A3B900BFA16E002991
:102030003FF43BAF20468847226836E788427FF46A
:1020400061ADDCF8000080067FF55CAD0222204621
:102050006266BDE8B040FFF7FFBC00BF606F78B1BB
:1020600042F6F101C0F600018163FEF703FA002891
:102070003FF448AD606F816BBDE8B040084700BFDA
:102080002046BDE8B040FFF7EBBC000010B5C8B17A
:102090000446C06F28B9002084F87800204600F07C
:1020A00025F82420E0672068616A026822F00102B6
:1020B000026011B1204600F0F3FA204600F020FC47
:1020C000012801D1012010BD2168486820F490400A
:1020D0004860886820F02A008860086840F00102A3
:1020E00020460A60BDE8104000F04EBB10B59EB01F
:1020F000044600201D90CDE91B00CDE9190002A87F
:102100005C21FEF714F9206844F20041C4F200019A
:1021100088423FD043F60001C4F20101884266D1F3
:102120000120029002A8FEF7D3FC002818BFFEF79A
:1021300075F941F24C00C4F20200416941F480415A
:102140004161416901F4804101910199016841F0C7
:1021500001010160006819A900F0010001900198D7
:102160004FF4C060199002201A9000201B900320A9
:102170001C9007201D904FF09040FEF7A7F92520F6
:1021800000210022FEF71AFC2520FEF707FC1EB0F6
:1021900010BD00BF022402A80294FEF799FC00289B
:1021A00018BFFEF73BF941F24C00C4F20200C168CF
:1021B00041F40031C160C16801F40031019101991D
:1021C000016841F001010160006819A900F00100F7
:1021D000019001980C20CDE9190400201B900320E8
:1021E0001C9007201D904FF09040FEF76FF91EB035
:1021F00010BD00002DE9F0410446C06F20281CBF2F
:102200000220BDE8F0810F4600294FF0010000F0E8
:102210008A801646002A08BFBDE8F0814FF000080A
:1022200021201D46C4F88480E067FEF73FFAA4F839
:102230005060A4F85260A1680646B1F5805F05D1F0
:102240002069002814BF3846B8460746B4F8520043
:10225000E0B1681C1CD0002D68D121680BE000BFE4
:1022600017F8010B0885B4F852000138A4F85200A1
:10227000B4F8520078B3C86900064FD5002FEFD1EB
:1022800038F8020B00276FF35F20EBE7216822E0AC
:10229000216802E0C869000609D4C869000606D4AE
:1022A000C86900065CBFC8695FEA0060F2D51FB16B
:1022B00017F8010B05E000BF38F8020B00276FF399
:1022C0005F200885B4F852000138A4F85200B4F831
:1022D00052000028E1D1C86940061DD4F5B1681C40
:1022E00010D100BFC869400616D4C869400613D48F
:1022F000C869400610D4C86940064FF00000F1D507
:102300000FE000BFFEF7D2F9801BA84208D8206872
:102310000168C0694006F5D5002002E0FEF7C6F965
:1023200003202021E167BDE8F08100BF216800BFE4
:10233000C869000608D4FEF7B9F9801BA842EFD897
:1023400021680868F4E700BF17B117F8010B04E033
:1023500038F8020B00276FF35F200885B4F85200AD
:102360000138A4F85200B4F852000028E0D1B2E7D6
:102370007047000080B540F2BC1043F60001C2F285
:102380000000C4F2010100234FF00C0C4FF4E132C5
:1023900080E80E00C0E90333C0E905C3C0E9073394
:1023A0004362FFF773FE002808BF80BDEFF3108083
:1023B00072B600BFFEE70000FEE70000FEE7000087
:1023C000F0B581B041F20007C4F20207FA680D4689
:1023D0009107044614D0F868216800F00300884291
:1023E0004FF0010040F09F80002900F09C80F868C9
:1023F0006168C0F302100130884232D134E000BF7E
:10240000206803280CD0022816D0012829D1396869
:10241000012211F0020182EA510116D120E000BF31
:102420003968890310D43968012211F4802182EAC5
:1024300091410AD114E000BF3968012211F4806192
:1024400082EA912101D10BE00021FA68636822F051
:1024500073026FF00F0606EB031310431843F86086
:1024600011B1012001B0F0BD386820F08060386003
:10247000FEF71CF9064600BF3868000106D5FEF7D6
:1024800015F9801B0228F7D944E000BF012D0DD0BB
:10249000F5B9386948F2FF01C0F2FF710840D4E98C
:1024A000021240EA012040EAC26022E048F2FF0145
:1024B0003869CFF6FF112269002301F1B461CFF62C
:1024C000E0730840A16803EB02526FF314020DE0C1
:1024D000386948F2FF016269CFF6FF114FF07E4381
:1024E0000840A16803EB026202F07E4240EA01204C
:1024F00010433861386840F080603860FEF7D6F8E5
:10250000054600BF3868000108D4FEF7CFF8401B2D
:102510000228F7D9032001B0F0BD00BFA0693969D6
:1025200008433861002001B0F0BD00007047000092
:1025300080B501F0E9F901F019FEBDE8804001F035
:10254000F1B9000010B596B005A804302421FDF7BC
:10255000EEFE4FF40070FEF76DFA28B1EFF3108035
:1025600072B600BFFEE700BF102060210590012079
:102570000D9102210B90CDE90F101190282012909F
:1025800007200024CDE9130105A80C941591FEF74E
:10259000C3FD28B1EFF3108072B600BFFEE700BFA5
:1025A0000F2000900320CDE9010468460421CDE905
:1025B0000344FEF7E5FB28B1EFF3108072B600BFCD
:1025C000FEE700BF16B010BD41F20C00C4F20200DD
:1025D00050F80C1C090703D4D0F88810090A02E04F
:1025E00050F80C1C090944F6445250F8043C01F020
:1025F0000F01C0F6000252F82110C3F38102DFE898
:1026000002F03303090F00BF42F20041C0F2F401AF
:102610002AE000BF41F20021C0F27A0124E000BFAD
:102620000368026803F00303C2F30212022B02F1F3
:10263000010207D0032B04BF41F20021C0F27A014E
:1026400004E000BF42F20041C0F2F4010368B1FBB4
:10265000F2F1C3F3062203685143C3F3416202233C
:1026600003EB4202B1FBF2F140F20802C2F20002B7
:10267000116050F8040C44F62A53C0F30310C0F65E
:102680000003185C21FA00F0106070474EF6885085
:10269000CEF20000016841F4700101607047000053
:1026A00080B5416A0A070DD4CA0716D18A071FD41C
:1026B0004A0728D4CA0631D48A063AD44A0658D5DD
:1026C00042E000BF0268D0F834C0536823F40043EE
:1026D00043EA0C035360CA07E8D00268D0F828C068
:1026E000536823F4003343EA0C0353608A07DFD5B1
:1026F0000268D0F82CC0536823F4803343EA0C03FB
:1027000053604A07D6D50268D0F830C0536823F426
:10271000802343EA0C035360CA06CDD50268D0F883
:1027200038C0936823F4805343EA0C0393608A060D
:10273000C4D50268D0F83CC0936823F4005343EA40
:102740000C0393604A0614D50268D0F840C0536861
:10275000BCF5801F23F4801343EA0C03536008D1B7
:10276000D2F804C0D0F844E02CF4C00343EA0E03CE
:102770005360090658BF80BD0168806C4A6822F426
:1027800000221043486080BDB0B582B004460020EE
:10279000C4F88400FDF78AFF216805460A6812071D
:1027A00035D56FF07E4C20464FF4001100222B46A9
:1027B000CDF800C000F0BCF940B300BF206850E87D
:1027C000000F216820F0800041E80002DAB12068A3
:1027D00050E8000F216820F0800041E8000292B12B
:1027E000206850E8000F216820F0800041E80002D6
:1027F0004AB1206850E8000F216820F0800041E8CD
:102800000002002ADAD12020E0675FE02168086832
:10281000400761D56FF07E4C20464FF480010022C6
:102820002B46CDF800C000F083F9002854D000BF3B
:10283000206850E8000F216820F4907041E8000201
:10284000E2B1206850E8000F216820F4907041E860
:1028500000029AB1206850E8000F216820F49070BF
:1028600041E8000252B1206850E8000F216820F4CE
:10287000907041E80002002ADAD100BF206850E8D9
:10288000020F216820F0010041E80202DAB120685D
:1028900050E8020F216820F0010041E8020292B1E5
:1028A000206850E8020F216820F0010041E8020290
:1028B0004AB1206850E8020F216820F0010041E889
:1028C0000202002ADAD12020C4F88000032000216F
:1028D00084F8781002B0B0BD2020E067C4F8800012
:1028E000002020666066002184F8781002B0B0BD38
:1028F000806A0021A0F85A10A0F85210FFF7B0B873
:10290000B0B505462A69D5E9021300680A4369692A
:10291000D5F81CE01143026846F6F314CEF6FF74B6
:1029200041EA0E01224011430160416848F2000C67
:1029300021F4405119434160AA69C4F2000C60457A
:102940001CBF296A0A438168102321F430611143B6
:10295000816047F6FF71C4F20001884212DC44F244
:102960000041C4F2000188421CD044F60001C4F2C8
:10297000000188422CD141F28801C4F202010968A9
:102980000B091DE0604515D043F60001C4F20101BA
:1029900088421DD141F28801C4F202010B6860A295
:1029A00012E000BF41F28801C4F2020109688B08FD
:1029B00006E000BF41F28801C4F2020109688B0AF7
:1029C00044F67462C0F6000203F0030152F82130AD
:1029D000604542F20040C0F2F40015D0BEF5004F51
:1029E00022D1082B4FF0010100F29580DFE803F0BF
:1029F00006546093589393935E0000BFFEF7FEFA6F
:102A0000002855D14FE000BF082B4FF0010100F224
:102A10008280DFE803F0058023801B808080210016
:102A2000FEF7ECFAD0B914E0082B4FF0010100F2E8
:102A30007280DFE803F005535F70577070705D00BF
:102A4000FEF7DCFA002855D14FE000BFFEF702FB8D
:102A500020B900215FE000BF4FF400406A6802EB3C
:102A6000420188424FF0010155D31303984252D8D6
:102A7000010E000210EB520041F100010023FDF7AE
:102A80001BFC4FF60052A0F54071C0F20F029142BC
:102A90003BD301213FE000BFFEF7C6FA40B902E098
:102AA000FEF7D8FA20B9002135E000BF4FF400400E
:102AB00069684A0802EB4000B0FBF1F04FF6EF7294
:102AC000A0F11001914207D84FF6F0710140C0F318
:102AD0004200084419E000BF01211CE0FEF7A4FAFF
:102AE00040B902E0FEF7B6FA20B9002113E000BFBA
:102AF0004FF4004069684FF6EF7200EB5100B0FBF5
:102B0000F1F0A0F11001914204D82968C8600021B9
:102B100001E000BF012100220846AA66EA66B0BDB6
:102B20000100000004000000020000000800000096
:102B30002DE9F041804600681546C2690E461140F5
:102B4000891BB1FA81F14909A94223D1069C2CB312
:102B5000611C29D1C1693140891BB1FA81F1490950
:102B6000A94217D1C1693140891BB1FA81F14909E4
:102B7000A9420FD1C1693140891BB1FA81F14909DC
:102B8000A94207D1C1693140891BB1FA81F14909D4
:102B9000A942DFD00020BDE8F08100BFFDF786FD2F
:102BA0000320BDE8F08100BF1F4607E0C069304048
:102BB000801BB0FA80F04009A842EBD1FDF776FD0A
:102BC000C01BA04200F2B080D8F80000016849079D
:102BD000ECD5402EEAD0802EE8D0C169090700F17B
:102BE000A780C1690905E1D54FF40061016250E891
:102BF000000FD8F8001020F4907041E80002002A7D
:102C000045D0D8F8000050E8000FD8F8001020F4A4
:102C1000907041E80002D2B3D8F8000050E8000FED
:102C2000D8F8001020F4907041E800027AB3D8F888
:102C3000000050E8000FD8F8001020F4907041E830
:102C4000000222B3D8F80000D1E700BFD8F8000096
:102C500050E8020FD8F8001020F0010041E802020D
:102C60000AB3D8F8000050E8020FD8F8001020F09E
:102C7000010041E80202B2B1D8F8000050E8020FAA
:102C8000D8F8001020F0010041E802025AB1D8F84B
:102C9000000050E8020FD8F8001020F0010041E8D1
:102CA0000202002AD2D1D8F8600001282CD1D8F82D
:102CB000000050E8000FD8F8001020F0100041E8A4
:102CC00000020AB3D8F8000050E8000FD8F800104E
:102CD00020F0100041E80002B2B1D8F8000050E83E
:102CE000000FD8F8001020F0100041E800025AB19F
:102CF000D8F8000050E8000FD8F8001020F01000BD
:102D000041E80002002AD2D120200021C8F880002A
:102D1000C8F86010C8F86810C8F88400032088F864
:102D20007810BDE8F08100BF0320BDE8F08100BF4E
:102D30000821016250E8000FD8F8001020F49070CC
:102D400041E80002002A44D0D8F8000050E8000F03
:102D5000D8F8001020F4907041E80002CAB3D8F807
:102D6000000050E8000FD8F8001020F4907041E8FF
:102D7000000272B3D8F8000050E8000FD8F8001035
:102D800020F4907041E800021AB3D8F80000D1E7AF
:102D9000D8F8000050E8020FD8F8001020F0010029
:102DA00041E802020AB3D8F8000050E8020FD8F850
:102DB000001020F0010041E80202B2B1D8F8000092
:102DC00050E8020FD8F8001020F0010041E802029C
:102DD0005AB1D8F8000050E8020FD8F8001020F0DF
:102DE000010041E80202002AD2D1D8F8600001288F
:102DF0002CD1D8F8000050E8000FD8F8001020F0CF
:102E0000100041E800020AB3D8F8000050E8000FB3
:102E1000D8F8001020F0100041E80002B2B1D8F854
:102E2000000050E8000FD8F8001020F0100041E832
:102E300000025AB1D8F8000050E8000FD8F800108E
:102E400020F0100041E80002002AD2D12020C8F86A
:102E5000800000200821C8F86000C8F86800C8F8A1
:102E6000841088F878000120BDE8F08140F2BC10A1
:102E7000C2F20000FEF7F6BDFEE70000002804BF26
:102E800000207047C1B209B101200CE010F47F416D
:102E900002D0090A092006E010F47F0107BF010EE5
:102EA0001920090C112044F67452C0F60002515C3E
:102EB0000844704784B041F24C00C4F2020001683B
:102EC00044F2004441F0800101600168C4F2000452
:102ED00001F0800103910399016842F6811541F0E8
:102EE000010101600168C0F2F10501F001010291E8
:102EF00002990168002241F002010160006804F5B6
:102F0000805100F002000190019840F2B000C2F23E
:102F100000000123C0E90015C0E90223C0E9042232
:102F2000C0E906220262FDF711FC28B1EFF3108020
:102F300072B600BFFEE700BF40F2B000C2F2000070
:102F40000021FDF7B9FB28B1EFF3108072B600BF86
:102F5000FEE700BF40F2B000C2F2000000210026F0
:102F6000FDF7D0FB20B1EFF3108072B6FEE700BF93
:102F700040F2041004F5A051C2F20000012280E8E2
:102F80006200C0E90326C0E90566C0E90766FDF7EF
:102F9000DDFB28B1EFF3108072B600BFFEE700BF83
:102FA00040F20410C2F200000021FDF785FB28B1B9
:102FB000EFF3108072B600BFFEE700BF40F20410CE
:102FC000C2F2000000210025FDF79CFB20B1EFF3C9
:102FD000108072B6FEE700BF40F2581004F56C4155
:102FE000C2F200004FF4827280E8260000F1140162
:102FF0004FF440734FF400764FF0180C81E86010E6
:1030000007210822C0E90335C0E90855C0E90A5183
:10301000C0E90C52FEF768FC20B1EFF3108072B6E5
:10302000FEE700BF40F24420C2F200004FF4E1315D
:1030300000220C23C0E90041C0E90222C0E90423B8
:10304000C0E90622C0E90822FFF720F820B1EFF31B
:10305000108072B6FEE700BF4FF4FA7000F0A8FFD0
:10306000FAE70000B0B544F6247444F62070C0F6C8
:103070000004C0F60000A04209D244F62075C0F654
:10308000000500BF55F8040B8047A542FAD3BDE800
:10309000B040FFF70FBF00002DE9F04F8AB0059157
:1030A00015990FF2D4464F060FF2E04858BFB046CC
:1030B000CE06DDE9134948BF21F00101CE074FF0EC
:1030C000300A08BF4FF0200A8E070DD40027019761
:1030D000002701250097002A00F09A80CDE90251CF
:1030E000CDF810A013E000BFB2F1FF3F06DD4E07A0
:1030F00000F186800E07E9D5202782E0012701979D
:10310000002702972D27CDE9031A524200974CF66B
:10311000CD494FF0000BCCF6CC490DF1180A00BF99
:10312000A2FB09561409F50802F00F0705EB850C00
:1031300025460A2B04BFF508A2EB4C0718F80770C8
:10314000002D0AF80B7049D0A5FB097C04F00F078D
:10315000140ACE464FEADC06A14606EB86060A2B89
:1031600004BF4FEADC09A5EB460718F807500AEB45
:103170000B0CB9F1000F59468CF8015032D0A9FB65
:103180000E5604F00F05140B5146F708A24607EB44
:1031900087070A2B04BF4FEAD60AA9EB470518F8A0
:1031A0000550BAF1000F8CF802501FD0AAFB0E5642
:1031B00004F00F04120CF50805EB85050A2B04BF7B
:1031C000F208AAEB450418F80440F1460BF1040B91
:1031D000002A8A468CF80340A2D109E00BF1010BCA
:1031E00006E000BF0BF1020B02E000BF0BF1030B86
:1031F000DDF810A0DDE90251DDE913490DE000BF63
:103200002B270097002501270197002A7FF466AF3E
:1032100030228DF818204FF0010BDDF814E0CB457B
:103220004B46C8BF5B4611F0110FA4EB03025FD001
:1032300006462DB976453CBF00983070013A0136FC
:10324000C80631D4551EC0F28D8012F0030700F07D
:103250009580764538BF86F800A0012F06F1010061
:1032600040F09680023A0646032DC0F08B80101D78
:10327000764506F1010238BF86F800A0724538BFD6
:1032800082F800A0B21C724538BF82F800A0F21C80
:103290007245A0F1040038BF82F800A0032806F1AF
:1032A0000406E5DC4FF0FF323046CB455EDAA3EB97
:1032B0000B076FEA0B0617F0030703EB060C57D05A
:1032C00070453CBF302404705D1E012F00F10104E5
:1032D00009D07445A3F102053CBF30262670022FA9
:1032E00000F102046CD12046BCF1030F73D28BE0D5
:1032F0000027002AC8BF0127019E3740D71B7A1E2E
:1033000096DB17F0030C51D070453CBF20240470AD
:10331000BCF1010F00F1010640F00481023F30468C
:10332000032A46D33A1D2026704500F1010738BF15
:103330000670774538BF3E70871C774538BF3E70B2
:10334000C71C7745A2F1040238BF3E70032A00F182
:103350000400E9DC4FF0FF320646002D3FF46AAF6F
:103360006EE700BF30462A46CB45A0DB04464BE063
:103370001D46BCF1030F2ED246E000BF2A46032DA6
:10338000BFF475AF4FF0FF32CB45FFF690AFEDE7DE
:10339000704538BF80F800A0022F06F1020040F00F
:1033A000D180033A0646032DECD360E71746032A83
:1033B000B8D24FF0FF32002D3FF43CAF40E700BFE2
:1033C00003307445A3F103053CBF3023237004464A
:1033D000BCF1030F18D33023044600BF744504F139
:1033E000010038BF2370704538BF0370A01C7045C2
:1033F00038BF0370E01C7045A5F1040538BF0370A9
:10340000AB4504F10404E9DBB9F1000F35D006A89F
:10341000023807E0ABF1040B0BF10403042B04F1B9
:1034200004042AD9744503D200EB0B035B782370A4
:10343000BBF1020F04F101031EDB73453CBF10F822
:103440000B701F70BBF1030F04F1020314D373451B
:1034500004D200EB0B0717F8017C1F70BBF1040FBF
:1034600004F1030308D37345D4D200EB0B0717F81C
:10347000027C1F70CEE700BF1C46012A12DB12F04F
:103480000307A2F1010311D074453CBF2020207036
:10349000012F04F101000DD11A460446032B3ED33F
:1034A00022E000BF20460AB000F07AB8032B36D3E2
:1034B0001AE000BF7045A2F102063CBF202505704E
:1034C000022F04F1020005D132460446032B26D315
:1034D0000AE000BF03347045A2F103023CBF20277D
:1034E00007702046032B1AD3013A2023204600BF41
:1034F000704500F1010738BF0370774538BF3B7056
:10350000871C774538BF3B70C71C7745A2F1040282
:1035100038BF3B7012F1020F00F10400E8D30AB08B
:1035200000F03EB876453CBF20243470BCF1020F59
:1035300000F1020612D1033F3046032AFFF439AFEF
:10354000F0E600BF0336704538BF80F800A0043AAB
:103550003046032DBFF48BAE14E700BF764503D28F
:103560002C462025357025460330043F0646032AA5
:10357000BFF4D8AE1DE700BF3031323334353637B3
:1035800038396162636465660000000030313233AF
:10359000343536373839414243444546000000004F
:1035A00030BCBDE8C08F0000B0B544F6207444F6CE
:1035B0001C70C0F60004C0F60000A04228BFB0BDD9
:1035C00044F61C75C0F6000555F8040B8047A5426B
:1035D000FAD3B0BD80B5FCF7F5FD40F25001C2F260
:1035E00000014A8801324A80BDE88040FCF7EEBD08
:1035F000B0B5FCF7E7FD40F25005C2F2000569885E
:103600000446481E01B20029688005DD2046BDE859
:10361000B040FCF7DBBD00BF002068802046FCF70F
:10362000D5FD6868002808BFB0BDFCF7CBFD6988F0
:1036300004460029EAD1A868FFF720FC421E05EBEA
:10364000C20041696868A1F114039842DED02A7073
:1036500040F2C8426B60C2F2000212781C3001F1E5
:1036600008013AB1FCF7B5FD2046BDE8B040FCF7D3
:10367000ADBD00BFFCF7ADFD2046BDE8B040FCF796
:10368000A5BD000080B5FDF739F9FEF75BFFFEF739
:103690009BFF40F20800C2F20000006844F6D351DC
:1036A000C1F26201A0FB01014FF0FF3000EB91116C
:1036B0000020B0EB116F0DD14EF21002CEF20002DD
:1036C00051604EF62351CEF20001F0230B70906052
:1036D00007201060FEF74EFEBDE88040FFF764BF94
:1036E000F0B581B004460D208DF8030040F2BC1007
:1036F000C2F20000002180F87810204600F0F8FAAD
:10370000E0B140F2BC160546C2F200060DF1030717
:103710000AE000BF3046214601220123FEF76AFD80
:10372000013D04F1010409D020780A28F2D1304685
:10373000394601220123FEF75DFDEBE701B0F0BD44
:1037400010B540F2C041C2F200010968044621B13F
:1037500020468847002808BF10BD216C44F6087039
:10376000C0F6000000F0ECF8616A44F6C760C0F6ED
:10377000000000F0E5F8A16A44F6D460C0F600004D
:1037800000F0DEF8E16A44F6E160C0F6000000F007
:10379000D7F8216B44F6EE60C0F6000000F0D0F8D8
:1037A000616844F6FB60C0F6000000F0C9F8A1684B
:1037B0001EA000F0C5F8E16820A000F0C1F8216962
:1037C00022A000F0BDF8616924A000F0B9F8A16959
:1037D00026A000F0B5F8E16928A000F0B1F8216A50
:1037E0002AA000F0ADF8616B2CA000F0A9F8A16B45
:1037F0002EA000F0A5F8E16B30A000F0A1F8207831
:10380000400707D444F69060C0F6000000F098F836
:103810000AE000BF00F0D4FB014644F6AA60C0F6FF
:10382000000000F08DF800BFFEE700BF7230353AAF
:10383000203078253038780A000000007230363A9F
:10384000203078253038780A000000007230373A8E
:10385000203078253038780A000000007230383A7D
:10386000203078253038780A000000007230393A6C
:10387000203078253038780A000000007231303A64
:10388000203078253038780A000000007231313A53
:10389000203078253038780A000000007231323A42
:1038A000203078253038780A00000000206C723A09
:1038B000203078253038780A000000002070633A04
:1038C000203078253038780A0000000004324BF6AA
:1038D000EF6C22F00702CDF6AD6C42F840CDC2E9A4
:1038E00001CCC2E903CCC2E905CCC2E907C1002181
:1038F0004FF0807CC2E90D301046C2E90911C2E9DF
:103900000B11C2F83CC0704780B5FCF75BFC40F27D
:10391000C841C2F200010A7801320A70BDE8804055
:10392000FCF754BC80B5FCF74DFC40F2C841C2F234
:1039300000010A78013A0A70BDE88040FCF746BCF5
:1039400083B010B581B040F2D044844603A8C2F2DF
:1039500000040EC003AB20467F216246009300F0B6
:10396000B7FD2046FFF7BCFE01B0BDE8104003B034
:103970007047000070B5042A06461BD316F00300FA
:1039800018D1C8B24FF00133102A00FB03F313D350
:10399000A2F1100C012000EB1C1010F003000DD060
:1039A0000128C6E90033B360F36009D106F11000C5
:1039B000624616E0304650E030462EE0304610E0D9
:1039C0000228C6E90433B361F36103D106F1200094
:1039D000203A06E006F13000303AC6E90833C6E97D
:1039E0000A33BCF1300F16D300F14004403AC0E96D
:1039F0000033C0E90233C0E90433C0E90633C0E94B
:103A00000833C0E90A33C0E90C33C0E90E330F2A8A
:103A10002046E9D82046042A1FD30446151F042D4A
:103A200040F8043B18D3A2F10805042D63600DD3C0
:103A3000A2F10C05042DA3600CD304F11000103A80
:103A4000E360032A0446E9D807E000BF04F1080058
:103A500002E000BF04F10C002A4622B1CBB21146AD
:103A60001A46FCF75DFC304670BD000010B50446F8
:103A700000202072FCF7A6FB54F80C1F62684A6015
:103A800062681160C4E90044BDE81040FCF79EBBC9
:103A9000F0B581B00E4640F20C01C2F200011546AD
:103AA0000A780446B2420F460FD00F4617F8100F9F
:103AB000B0420AD00F4617F8200FB04205D011F8D7
:103AC000300FB04218BF00210F46FFF783FD0437C7
:103AD000384600BF0068B84208D00068B84205D038
:103AE0000068B84202D00068B842F3D1FFF780FD09
:103AF00046F08000207220462946082200F016F980
:103B0000FCF760FB396844F80C1F4C603C60676050
:103B100001B0BDE8F040FCF759BB0000007AC009D5
:103B200070470000B0B5FCF74DFB40F25005C2F203
:103B300000056988044629B12046BDE8B040FCF77D
:103B400045BB00BFA868FFF799F9013805EBC00134
:103B500049696A68A1F114039A42EDD0287040F2D5
:103B6000C8406B60C2F20000037802F11C0001F152
:103B700008013BB1FCF72DFB2046BDE8B040FCF747
:103B800025BB00BFFCF725FB2046BDE8B040FCF795
:103B90001DBB000010B50446FCF714FB94F834106C
:103BA00094F8352040F2500C01F0F001C2F2000C04
:103BB00001310CEBC20284F83410916904F1140352
:103BC00002F1140E0B60A1619361A16BDCF8082077
:103BD000C4F814E01143CCF80810BDE81040FCF71D
:103BE000F5BA000010B50446FCF7ECFA224652F88C
:103BF000141F40F2500C5368C2F2000C4B60536823
:103C00005260196092F8213012600CEBC30353F834
:103C1000141F994204D0BDE81040FCF7D7BA00BF8A
:103C2000A16BDCF8082022EA0101CCF80810BDE8FD
:103C30001040FCF7CBBA000080B582B00AA0FFF7B5
:103C40007FFE0CA0FFF77CFE0FF24C0C15A00321A9
:103C500001220523CDF800C0FFF772FE19A002B0C3
:103C6000BDE88040FFF76CBE0A205C207C202F0A54
:103C7000000000002D205254202D20202020205410
:103C80006872656164204F7065726174696E672047
:103C900053797374656D0A004175672032302032A4
:103CA00030323500202F207C205C20202020202551
:103CB000642E25642E2564206275696C642025734A
:103CC0000A0000002032303036202D2032303230D1
:103CD00020436F707972696768742062792072740A
:103CE0002D746872656164207465616D0A0000005E
:103CF000C11C00BF11F8032C62B111F8022C6AB18B
:103D000011F8012C72B111F8042B002AF2D10439F8
:103D1000081A70470339081A704700BF0239081A99
:103D2000704700BF0139081A704700002DE9F041C3
:103D30008046DAB3C2F1000C00234446CF5C08F899
:103D40000370DFB10CEB0306771C2FD2CF18787805
:103D500008EB03056870A8B1B01C27D0B878A8702C
:103D6000B0B1F01C22D0F878E870D8B10433043434
:103D70001CEB0300A2F10402E0D117E0601C511E0D
:103D80000AD113E0A01C013A511E05D10EE000BF7C
:103D9000E01C023A511E09D0FCF7C9FA4046BDE8C2
:103DA000F08100BF033A281D511EF5D14046BDE801
:103DB000F0810000B0B540F25000C2F2000000F106
:103DC0002C01C0E90B1100F1440100F12402C0E90B
:103DD000111107214FF0000C00F1140300F11C0E2B
:103DE00000F1340400F13C05C0E9092200F14C0265
:103DF000017000F10C01A0F802C0C0E90D44C0E957
:103E00000F55C0E91322C0E901CCC0E90311C0E994
:103E10000533C0E907EEB0BD10B540F25004C2F260
:103E20000004A068FFF72AF804EBC000C068A0F106
:103E3000140108306160BDE81040FCF7F8B90000DB
:103E400040F2A400C2F20000011DC0E90111704758
:103E50007047000070B540F25400C2F200000568DF
:103E6000FCF7B0F90446FCF7ADF9296F064609B135
:103E7000284688473046FCF7A9F92846FFF7B2FEE6
:103E8000042085F8340005F1440000F06DFA28465E
:103E9000FFF744FE012809D12846FFF7E7FDFFF7A9
:103EA00041FE2046BDE87040FCF790B940F25C004E
:103EB000C2F20000016845F8141F4D60056068609B
:103EC000FFF730FE2046BDE87040FCF77FB90000E8
:103ED000FEE7000010B584B040F250528021C2F2DB
:103EE000000240F2CC240720CDE90021C2F20004F8
:103EF00043F6D1624FF0200C029007A1C0F60002F9
:103F000020460023CDF80CC000F00AF8204604B08B
:103F1000BDE8104000F096B87469646C650000005C
:103F20002DE9F04782B00DF1280A16460A46DDF861
:103F300034909AE8800501211D460446FFF7A8FD4C
:103F400004F11400C4E90500384623214246C4E9BF
:103F50000865C4E90A78FFF70DFD04F120030FCBD3
:103F60001A4443F65563043AC0F60003FFF7AEFC6B
:103F700044F2A102E061002704F14400C0F600020F
:103F80002146234684F836A084F835A0C4E90E798A
:103F9000C4F84090276384F83470C4E91C77009714
:103FA000019700F0F9F9002002B0BDE8F0870000A9
:103FB00080B500F0BBF800F009F8002080BD0000DB
:103FC00040F25400C2F2000000687047F0B581B0C2
:103FD0000090FCF7F7F840F25401C2F200010C68BF
:103FE000054694F8341001F00F01012913D1FCF7B4
:103FF000E9F806462046FFF7F5FD94F8340000F096
:10400000F000023084F8340004F1440000F044FA77
:104010003046FCF7DBF804F144066A4630460021DE
:10402000002700F06DF9304600F0D0F92846FCF783
:10403000CDF8FFF777FD206B023008BF2763002023
:1040400001B0F0BDB0B5044690F83600012184F807
:10405000350001FA00F0A063022084F83400FCF778
:10406000B1F82246A16952F8143F05465960A1698A
:1040700004F144000B60A261126000F00DFA2846C2
:10408000FCF7A4F82046FFF785FD40F25400C2F289
:1040900000000068002818BFFFF744FD0020B0BDF5
:1040A00080B50246816952F8143F6FF0010C5960E7
:1040B0008169C0F830C00B6082611260FFF76AFD51
:1040C000BDE88040FFF72EBD10B5FCF77BF840F24D
:1040D0005401C2F20001096891F8342002F00F0285
:1040E000012A1FD10A4652F814CF53689C4519D0B3
:1040F000CCF8043091F835E040F26403C2F20003DA
:1041000003EBCE03D1F818E08A615C68CEF800C0FA
:1041100022608C615A604B61FCF758F8FFF702FD92
:10412000002010BDFCF752F8002010BD002844BF4D
:104130004FF0FF30704744F6D351C1F26201A0FB4B
:1041400001239A094FF47A7302FB1300584300F2DB
:10415000E730A0FB010102FB03F000EB9110704778
:1041600040F2D450C2F200000068704780B540F2BF
:10417000D450C2F20000016801310160FFF720FF56
:10418000016C0139016403D0BDE8804000F008B83B
:10419000C16B0164FFF798FFBDE88040AFF300807A
:1041A0002DE9F04F83B00DF1040BCDE901BBFFF712
:1041B000D7FF0546FCF706F840F2A408C2F2000853
:1041C000414651F8047F00908F4200F08F804FF6F7
:1041D000FE76C7F6FF7608F1040A18E05046D8F8D4
:1041E000001002680131C8F8001017F80B1C576066
:1041F0003A600760786041F0010007F80B0C484610
:10420000FBF7E4FF404650F8047F87426ED07869A0
:10421000281AB0426AD8D7E9001048607A6817F8BF
:104220000B0C116081073F605CBF00F0FE0007F8D7
:104230000B0C019847603860D7E902100197C7F866
:1042400004B08847FFF78CFF019905465945D9D03E
:10425000D7E90001416079687F60086017F80B0CAE
:104260003F6000F003010329CCD100F0FE0007F805
:104270000B0CFBF7A7FFD7E9001281464A6017F83D
:104280000B0C7A6800F0FE0011603F607F6007F859
:104290000B0CFFF765FF3A69D8F808101044514538
:1042A00078619BD0C243504603685C691444B442B1
:1042B00095D3994215D0186844691444B44213D375
:1042C00081420ED003685C691444B442FFF487AFA6
:1042D000994206D0186844691444B44204D3814218
:1042E000E2D108467BE700BF184678E70098FBF765
:1042F0006DFF03B000F000B830BCBDE8C08F000017
:1043000070B514460E460546FBF75CFF042E07D831
:10431000DFE806F0040A1018200000BF2168696277
:10432000FBF754FF002070BD696A2160FBF74EFF68
:10433000002070BD697A01F0FD016972FBF746FF4C
:10434000002070BD697A41F002016972FBF73EFFFF
:10435000002070BD697AC9070CBF002101212160CE
:10436000FBF734FF002070BD10B50446FBF72AFFB1
:104370002246A16952F8143F5960A169A2610B60FD
:10438000617A126001F0FE016172FBF71FFF2046A7
:10439000FFF76CFB002010BD2DE9F04115460A46E1
:1043A000DDE906870A211C460646FFF771FB07F088
:1043B000FE007072002006F11401C6E90511C6E97D
:1043C0000754C6E90980BDE8F08100002DE9F041FD
:1043D0000446FBF7F7FE264656F8141F804672681F
:1043E00016F80B0C4A60726800F0FE00116036602F
:1043F000766006F80B0CFFF7B3FE40F2A40CC2F295
:10440000000C3169DCF808700CF104020144974299
:1044100071612CD04FF6FE75CB43C7F6FF7511685E
:1044200048691844A84222D38F4217D00A685069BD
:104430001844A84214D3974214D01168486918440C
:10444000A84214D38F420FD00A6850691844A8427A
:104450000CD39742E3D13A4609E000BF3A4606E062
:104460000A4604E03A4602E03A4600E00A46DCF832
:10447000000011680130CCF80000607A4E6040F016
:1044800001006072404661611660A261FBF79EFE0A
:104490000020BDE8F081000010B50446407AC00756
:1044A00004BF4FF0FF3010BDFBF78CFE54F8141F13
:1044B00062684A6062686460116014F80B1C2460D2
:1044C00001F0FE0104F80B1CFBF780FE002010BD7C
:1044D0002DE9F04F85B09B46144600EB010A4FF0E2
:1044E00020090391002948BF4FF0FF3A049002E0F1
:1044F000411C013408462178252907D0002900F005
:10450000E983504538BF0170F2E700BF0234002153
:1045100014F8012CA2F12007102F00F26D80102357
:10452000DFE807F00A6A6A0C6A6A6A6A6A6A6A0EEF
:104530006A126A6A100000BF082305E0202303E026
:10454000042301E0012300BF22781943A2F12007D0
:10455000102F00F28D801023DFE807F00A8A8A0C02
:104560008A8A8A8A8A8A8A0E8A128A8A100000BFF8
:10457000082305E0202303E0042301E0012300BF1A
:1045800062781943A2F12007102F00F299801023BE
:10459000DFE807F00A96960C969696969696960EF3
:1045A00096129696100000BF082305E0202303E032
:1045B000042301E0012300BFA2781943A2F12007E0
:1045C000102F00F285801023DFE807F0108282129E
:1045D000828282828282820E820A8282140000BFDC
:1045E0001943043494E700BF0423F9E70823F7E7ED
:1045F0002023F5E70123F3E7A31E013CA2F13007D6
:10460000092F3AD80234002606EB860302EB430357
:1046100014F8012CA3F13006A2F13007092F5FD85E
:1046200006EB860302EB43032278A3F13006A2F1E6
:104630003007092F56D806EB860302EB4303627856
:10464000A3F13006A2F13007092F00F2A38006EB98
:10465000860302EB4303A278A3F13006A2F13003F4
:104660000A2B04F10404CFD3023C2E2A3CD018E0DC
:10467000631EA2F13007092FC4D92A2A0CD15BF896
:10468000046B9C1CB6F1FF3FDCBF764241F0100189
:1046900022782E2A28D004E022784FF0FF362E2AE6
:1046A00022D04FF0FF3E42F004036C2B40F07E809E
:1046B00014F801CFACF12505532D40F27E80E5E0E2
:1046C00023460134A2F13007092FD6D89AE700BF5C
:1046D000631C0234A2F13007092F93D9CDE700BF44
:1046E000013C00BF2E2ADCD1234613F8012FA2F192
:1046F0003007092F36D80234002300BF03EB8303B1
:1047000002EB43032278303BA2F13007092F46D851
:1047100003EB830302EB43036278303BA2F13007E3
:10472000092F3BD803EB830302EB4303A278303B12
:10473000A2F13007092F00F22F8103EB830302EB74
:104740004303E278303BA2F130070A2F04F104045E
:10475000D4D3013C23EAE37E42F004036C2BA7D0C0
:1047600024E000BF2A2A0BD114F8022F5BF8043B87
:1047700023EAE37E42F004036C2B99D016E000BFDD
:104780004FF0000E1C4642F004036C2B3FF490AF38
:104790000CE000BF01342E2AA6D082E7013423EAC0
:1047A000E37E42F004036C2B3FF482AF9446002278
:1047B000ACF12505532D00F269800A23DFE815F0DE
:1047C00054006600660066006600660066006600CB
:1047D00066006600660066006600660066006600A9
:1047E0006600660066006600660066006600660099
:1047F0006600660066006600660066006600660089
:104800006600660066006600660066006600660078
:104810006600660066006600660066006600660068
:104820006600660066007800660066006600660046
:104830006600660066006600660066008C005A002E
:1048400066006600660066005A0066006600660044
:1048500066006600A800AC0066006600BE00660048
:104860007B00660066007A0050453CBF2521017040
:104870003EE600BF41F002010A23682A1DD1BBF8C1
:1048800000208F0748BF12B21AE000BF504503D284
:104890002521017094F800C0BCF1000F00F1010166
:1048A00000F08680514538BF81F800C0811C20E6A9
:1048B00041F040011023682AE1D06C2ADBF8002087
:1048C0000BF1040BCFB25146CDE9006E0297FEF713
:1048D000E3FB01460DE600BFC90667D4022EA6F130
:1048E0000103C0F28D8013F00307A6F1020200F06D
:1048F000E780504538BF80F80090012F00F101019A
:1049000040F0EA801346032A80F010812AE100BFBC
:104910000823682AD1D1B2E7721CB2FA82F24FEAB8
:10492000521241EA020108BF08265BF8042BCFB2FD
:10493000CDE9006E51461023C8E700BF5BF8048B39
:1049400044F68962B8F1000FC0F6000208BF904635
:1049500086B3C6F1000C002218F802305BB30CEBF2
:1049600002035D1C15D008EB02077D78002D00F0D6
:10497000BF809D1C0DD0BD78002D00F0BB8003339F
:1049800007D0FB78002B00F0C78004321CEB020339
:10499000E2D132460FE000BF023423EAE37E42F068
:1049A00004036C2B3FF484AE00E700BF0146DAE05D
:1049B000013C9EE5002272459446C8BFF446BEF114
:1049C000000FD8BF9446C9061FD46645A6F1010260
:1049D0001ADDA6EB0C0111F0030775D0504538BF66
:1049E00080F80090012F00F1010140F08580B21E97
:1049F0006FEA0C003044032880F0FD8016E100BF10
:104A000001461E46AFE000BF1646BCF1010FC0F2E2
:104A10001481ACF10101032904D21CF0030234D14A
:104A20000CE100BF2CF00302002102E004318A42B5
:104A300024D0471857453CBF18F801303B707B1C09
:104A400053450BD208EB01056D781D70BB1C534517
:104A500007D3FB1C5345E9D20AE000BFBB1C5345FA
:104A6000F7D208EB0105AD781D70FB1C5345DDD274
:104A700008EB0107FF781F70D8E700BF88440144A6
:104A800008461CF0030200F0D98050453CBF98F85E
:104A900000100170012A00F1010100F0CF805145A2
:104AA0003CBF98F801300B70022A00F1020100F0BF
:104AB000C58051453CBF98F802200A70C11CBDE07A
:104AC0000146032A32D24DE001466FEA0C00304421
:104AD000032880F09080A9E0514538BF81F800900C
:104AE000022F00F1020119D1F31E032A1ED239E070
:104AF000013260E702325EE7514538BF81F800902D
:104B0000022F00F102016BD1F21E6FEA0C0030445B
:104B1000032870D28AE000BF03324CE7514538BF0A
:104B200081F80090C11C331F032A1BD3181D00BF3E
:104B3000514501F1010238BF81F80090524538BF5C
:104B400082F800908A1C524538BF82F80090CA1C37
:104B50005245A0F1040038BF82F80090042801F10A
:104B60000401E5DC002651453CBFDBF8000008707D
:104B7000022E0BF1040B2FDB043100BFC81E504581
:104B800038BF01F8039C032EA1F10200FFF4A1AE8F
:104B90005045A6F1040038BF01F8029C10F1040F43
:104BA000A1F1010276D85245A0F1010038BF01F809
:104BB000019C10F1040F3FF69CAC5145A0F101029D
:104BC00038BF81F80090043112F1030F00F10106A3
:104BD000D4D30339FFF78DBC0131FFF78ABC00BF86
:104BE000514538BF81F80090C11C321F6FEA0C009C
:104BF000304403281AD3501C514501F1010238BF3B
:104C000081F80090524538BF82F800908A1C5245C6
:104C100038BF82F80090CA1C5245A0F1040038BF8A
:104C200082F80090844501F10401E5DBACF1010656
:104C30000846BCF1010FBFF6ECAE014666457FF7B2
:104C400058ACA6EB0C0010F0030009D0514538BF5A
:104C500081F80090012801F1010205D1701E13E0D6
:104C600030460A4610E000BF524538BF82F8009037
:104C7000022801F1020201D1B01E05E0524538BF01
:104C800082F80090F01ECA1C6FEA0C01314403291F
:104C9000114603D21146FFF72CBC00BF514501F16C
:104CA000010238BF81F80090524538BF82F8009069
:104CB0008A1C524538BF82F80090CA1C5245A0F1A8
:104CC000040038BF82F80090844501F10401E5DB5F
:104CD000FFF70FBC0399049B002948BFD94331B1AA
:104CE00001460022504528BFAAF101010A70C01AEE
:104CF00005B000F000B830BCBDE8C08F00207047A0
:104D000000207047002070470020704702E008C86C
:104D1000121F08C1002AFAD170477047002001E035
:104D200001C1121F002AFBD17047000000000000E3
:104D30000000010203040607080900000000010248
:104D400003040000A0860100400D0300801A060045
:104D500000350C0040420F0080841E0000093D0019
:104D600000127A000024F40000366E010048E801C9
:104D7000006CDC02000001000200010003000100E1
:104D80000200010004000100020001000300010014
:104D90000200010005000100020001000300010003
:104DA00002000100040001000200010003000100F4
:104DB00002000100060001000200010003000100E2
:104DC00002000100040001000200010003000100D4
:104DD00002000100050001000200010003000100C3
:104DE00002000100040001000200010003000100B4
:104DF00002000100070001000200010003000100A1
:104E00000200010004000100020001000300010093
:104E10000200010005000100020001000300010082
:104E20000200010004000100020001000300010073
:104E30000200010006000100020001000300010061
:104E40000200010004000100020001000300010053
:104E50000200010005000100020001000300010042
:104E60000200010004000100020001000300010033
:104E70000200010000000000040000000200000029
:104E8000080000006D61696E00284E554C4C2900E9
:104E900068617264206661756C74206F6E20686151
:104EA0006E646C65720D0A0D0A006861726420669A
:104EB00061756C74206F6E207468726561643A204D
:104EC00025730D0A0D0A007230303A2030782530F3
:104ED00038780A007230313A203078253038780A34
:104EE000007230323A203078253038780A0072303B
:104EF000333A203078253038780A007230343A203E
:104F00003078253038780A007073723A203078256E
:104F10003038780A00000000094D0008014D0008F3
:104F2000FD4C0008054D0008484F00080000002017
:104F3000500000000C4D0008984F00085000002061
:104F4000900900001C4D0008010000001000000046
:104F500000093D00010000001000002010000020AA
:104F60007800000002000000200000202000002047
:104F7000200000000500000030000020300000206C
:104F8000300000000A000000400000204000002027
:084F90002C00000000000000ED
:040000050800018D61
:00000001FF
