:020000040800F2
:1000000030060020A1010008BD200008B52000082E
:10001000B9200008B5020008252A000800000000E9
:100020000000000000000000000000003122000875
:10003000B902000800000000C120000835220008B5
:10004000BB010008BB010008BB010008BB010008A0
:10005000BB010008BB010008BB010008BB01000890
:10006000BB010008BB010008BB010008BB01000880
:10007000BB010008BB010008BB010008BB01000870
:10008000BB010008BB010008BB010008BB01000860
:10009000BB010008BB010008BB010008BB01000850
:1000A000BB010008BB010008BB010008BB01000840
:1000B000BB0100080000000000000000BB010008B8
:1000C000BB010008BB010008BB010008BB01000820
:1000D000BB010008192A0008BB010008BB01000889
:1000E000BB010008BB010008000000000000000088
:1000F0000000000000000000000000000000000000
:1001000000000000BB01000800000000BB01000867
:100110000000000000000000BB010008BB01000857
:10012000BB010008BB010008BB010008BB010008BF
:10013000BB010008000000000000000000000000FB
:10014000BB010008BB010008BB0100080000000063
:10015000BB010008BB010008BB010008BB0100088F
:10016000BB010008BB010008BB0100080000000043
:10017000BB010008BB0100080000000000000000F7
:10018000BB010008BB010008BB010008DFF80CD070
:1001900000F07EF800480047292A000830060020B9
:1001A0000648804706480047FEE7FEE7FEE7FEE711
:1001B000FEE7FEE7FEE7FEE7FEE7FEE7392200087E
:1001C0008D0100082DE9F05F0546002092469B4610
:1001D00088460646814640241BE02846414647465D
:1001E000224600F044F853465A46C01A914110D3B3
:1001F00011461846224600F02BF82D1A67EB01082D
:100200004F4622460120002100F022F817EB00099A
:100210004E41201EA4F10104DFDC484631462A4647
:10022000434600F000B830BCBDE8C09FD2B201E048
:1002300000F8012B491EFBD270470022F6E710B5EB
:1002400013460A4604461946FFF7F0FF204610BD44
:10025000202A04DB203A00FA02F100207047914086
:10026000C2F1200320FA03F3194390407047202A7B
:1002700004DB203A21FA02F00021704721FA02F350
:10028000D040C2F120029140084319467047000057
:10029000064C074D06E0E06840F0010394E80700D3
:1002A00098471034AC42F6D3FFF774FFF42C0008E3
:1002B000142D0008FEE7000070470000EFF31080E7
:1002C00072B600BFFEE70000014690F82500022844
:1002D00018D10868D1E910C3026822F00E0202604A
:1002E000026822F00102026003F01C00012202FAFF
:1002F00000F0CCF80400002081F82520002281F8CD
:10030000242070470420C8630120002281F82420A3
:100310007047000080B590F82510022922D10168AD
:10032000D0F838E0D0E910C30A68BEF1000F22F01F
:100330000E020A600A6822F001020A6003F01C0142
:100340004FF0010202FA01F1CCF804104FF0000165
:1003500080F8252080F8241001D0F04700210846BD
:1003600080BD00BF0421C163012080BD2DE9F04F95
:1003700084B08E4641F20002C4F60002DEF800406E
:1003800007219042019008BF0421002C009100F049
:10039000D7800198002500F138424FEAB223009837
:1003A000012700264FF00008042B38BF18460090A4
:1003B000CDF808E00EE000BFDEF8004008F10108CB
:1003C00034FA07F106F1020607F1010705F1040509
:1003D00000F0B680A7F1010A012000FA0AF314EA3E
:1003E0000309E9D0DEF804C00CF0030BABF1010403
:1003F000012C17D80198744681680322E468B24042
:100400009143B4402143816041684FEA480E9943CB
:10041000CCF3001303FA0AF30446D0431943616096
:100420000CE000BF0321B140019CC843BBF1030FA6
:10043000B64603D1B6464FF0030B23E0E168029ABB
:1004400001409368BBF1020F03FA0EF341EA030186
:10045000E16017D16FF0030101EA5A01214405F070
:100460001C040F23D1F820C003FA04FB13692CEA03
:100470000B0CA34043EA0C03019C0B62D2F804C0AE
:100480000CF0030B21680BFA0EF2014011432160BE
:10049000DDF808E01CF4403F8ED041F26000C4F269
:1004A0000200016840F2004C41F001010160016866
:1004B000C4F2010C01F00101039103992AF0030138
:1004C0004FF6084A6144CFF6FF7A05F00C030F207F
:1004D00051F80A2000FA03F40098A24300FA03F34B
:1004E0001A4341F80A20DCF80810DEF8042041EA3B
:1004F000090340F20C40D40258BF21EA0903CCF8AA
:100500000830C4F201000168940241EA090358BFAF
:1005100021EA09030360DCF80410940341EA0903AB
:1005200058BF21EA0903CCF80430DCF80010D203EC
:1005300041EA090358BF21EA0903CCF800303BE740
:1005400004B000F000B830BCBDE8C08F40F22C20F1
:10055000C2F200000068704790F84120202A03D1C1
:1005600090F84020012A01D102207047242280F80F
:1005700041200268136823F001031360136823F419
:1005800080531360136819431160116841F0010131
:100590001160202180F84110002180F840100846A9
:1005A0007047000090F84120202A03D190F84020A5
:1005B000012A01D102207047242280F841200268DC
:1005C000136823F001031360136823F4706343EA94
:1005D00001211160116841F001011160202180F8B2
:1005E0004110002180F8401008467047002804BFE1
:1005F0000120704710B5044690F8410028B900204A
:1006000084F84000204600F049F8242084F8410096
:1006100094E80910E2680168012A21F001010160F3
:1006200023F070610161816821F40041816003D190
:100630004CF40041816009E04CF40441022A8160DD
:1006400004D1416841F4006103E000BF416821F436
:1006500000614160416804F1100C41F0007141F407
:1006600000414160C16821F40041C1609CE80E1066
:10067000114341EA0321C160216A41EA0C01016092
:10068000016841F00101016000202021606484F8CC
:100690004110206384F8420010BD000010B59EB0E8
:1006A000044600201D90CDE91B00CDE9190002A8E9
:1006B0005C21FFF7C2FD206845F60001C4F200018D
:1006C000884237D045F20041C4F20001884262D12D
:1006D0004020029002A800F059F9002818BFFFF747
:1006E000EDFD41F24C04C4F20204206819A940F067
:1006F00002002060206800F0020001900198C020F4
:10070000199012201A9000201B9003201C900420A6
:100710001D9040F20040C4F60000FFF727FEE0689D
:1007200040F40010E060E06800F4001001900198CF
:100730001EB010BD8020029002A800F027F900280A
:1007400018BFFFF7BBFD41F24C04C4F2020420685D
:1007500019A940F002002060206800F0020001901A
:1007600001984FF44060199012201A9000201B90BD
:1007700003201C9004201D9040F20040C4F60000AD
:10078000FFF7F4FDE06840F48000E060E06800F40A
:100790008000019001981EB010BD000040F20000E2
:1007A00040F22C21C2F20000C2F2000100780A6877
:1007B000104408607047000080B5032000F088F8FE
:1007C0000F2000F009F800281CBF012080BD00F0B8
:1007D00029F8002080BD000070B540F20006C2F28A
:1007E00000063178E1B1044640F20800C2F2000090
:1007F0004FF47A720068B2FBF1F1B0FBF1F001F056
:1008000073F80F2C4FF0010508D838B94FF0FF30BE
:1008100021460022002500F02FF87460284670BDA4
:10082000012070BD82B041F25800C4F2020081681C
:1008300041F001018160816801F00101019101999C
:10084000016841F080510160006800F08050009024
:10085000009802B070470000002848BF704700F0C1
:100860001F01012202FA01F14EF200124009CEF2FC
:10087000000242F82010704710B54EF60C5CCEF224
:10088000000CDCF80030C3F3022E8EF00704042CB9
:1008900028BF0424BEF103034FF0FF3E0EFA04F418
:1008A00038BF0023A14399400EFA03F39A43114342
:1008B00000F00F02043A624409010C3200F1604377
:1008C000B0F1FF3FC8BF03F56442117010BD0000D6
:1008D0004EF60C51CEF200010A684FF6FF031A40A3
:1008E00060F30A2242F0806040F0FD7008607047BB
:1008F00047F20001C4F200010A68B0F5007F02F47B
:10090000C06031D1B0F5007F2CD00868012262F3BD
:100910004A20086040F20800C2F20000006832225B
:1009200050434DF68362C4F21B32A0FB0202900CCE
:100930004A69520511D5421C0FD04A6952050CD59F
:1009400058B14A69520508D5012806D04A695205AE
:1009500003D50228A0F10400EAD14869400544BF4C
:100960000320704700207047B0F5806FFAD0086808
:10097000022262F34A2008600020704747F200001C
:10098000C4F20000006800F4C06070472DE9F04335
:1009900081B00446407841F288070007C4F202079C
:1009A00021D5606C80B1B0F5400F15D0B0F5000FC7
:1009B00040F02A8157F87C0C40F4803047F87C0CDA
:1009C0004FF400000AE000BF201D002101F07AFB77
:1009D000814650B9606C01E04FF44000396821F461
:1009E0004001084338604FF00009A078800751D5D6
:1009F00057F8300C10F080580BD157F8300C40F0FD
:100A0000805047F8300C57F8300C00F080500090C0
:100A1000009847F20005C4F20005286840F4807091
:100A20002860FFF793FD06462868C00508D4FFF745
:100A30008DFD801B0228F7D94FF0030921E000BF8C
:100A4000B9F1000F1DD1B86810F4407011D0A16D3C
:100A500088420BD0B868B96820F4407041F4803106
:100A6000B960B96821F48031B960B860C00740F05E
:100A7000D380B868A16D20F4407008434FF000099E
:100A8000B860B8F1000F05D157F8300C20F0805055
:100A900047F8300C2168C80712D1880718D44807D6
:100AA0001ED4880624D488052AD4480530D44806A4
:100AB00036D408063CD4C80542D4080348D459E0CB
:100AC0003868226A20F00300104338608807E6D5B2
:100AD0003868626A20F00C00104338604807E0D59F
:100AE0003868A26A20F03000104338608806DAD5F2
:100AF0003868E26A20F44060104338608805D4D535
:100B00003868E26B20F44020104338604805CED5A9
:100B10003868226C20F44010104338604806C8D56D
:100B20003868226B20F44050104338600806C2D564
:100B30003868626B20F4404010433860C805BCD56B
:100B40003868A26B20F4403010433860080311D598
:100B50003A68A06C22F040620243B0F1806F3A60C4
:100B60001ED0B0F1006F05D157F87C0C40F4801016
:100B700047F87C0C480327D53A68E06C22F04062C5
:100B80000243B0F1806F3A6016D0B0F1006F1BD114
:100B900057F87C0C40F4801047F87C0C14E000BF40
:100BA000201D012101F08EFA2168002818BF81461E
:100BB0004803E1D408E000BF201D012101F082FAC2
:100BC0002168002818BF8146480410D53868226D76
:100BD00020F040501043B2F1805F386007D1201DF3
:100BE000022101F06FFA2168002818BF814608042D
:100BF00005D53868616D20F080400843386048466C
:100C000001B0BDE8F08300BF4FF00109A078800774
:100C10003FF5EEAE3EE700BFFFF798FC064641F217
:100C200088354FF0030900BFB86880073FF521AF52
:100C3000FFF78CFC801BA842F6D922E72DE9F04390
:100C400081B000286BD042F20008C4F202080446CA
:100C5000D8F800000D4600F0070088420CD2D8F802
:100C6000000020F007002843C8F80000D8F8000072
:100C700000F00700A84252D1206841F2080910F0A4
:100C80000201C4F202090DD0A268D9F8003003F0C5
:100C9000F0039A4206D9D9F8003023F0F0031A4342
:100CA000C9F80020C2072DD169B1A168D9F8002088
:100CB00002F0F002914206D2D9F8002022F0F002B0
:100CC0001143C9F80010D8F8001001F00701A9423B
:100CD0000CD9D8F8001021F007012943C8F80010FA
:100CE000D8F8001001F00701A94218D141071BD420
:100CF000000723D4D9F80000D9F8041010F00C0034
:100D00002CD131E0606800285ED0022800F07E809F
:100D1000032840F0818059F8081C890158D401202B
:100D200001B0BDE8F08300BFD9F80010E26821F4FB
:100D3000E0611143C9F800100007DBD5D9F80000C5
:100D4000216920F4605040EAC100C9F80000D9F8D8
:100D50000000D9F8041010F00C0005D00C2829D19F
:100D600001F00301012925D159F8081C090703D412
:100D7000D9F88C10090A02E059F8081C090942F652
:100D8000B44201F00F01C0F6000252F82110002811
:100D90000A4618BF00220C2871D1D9F8040000F0CF
:100DA0000300022846D0032804BF41F20021C0F20C
:100DB0007A0143E0042857D008285BD141F2002291
:100DC000C0F27A025BE000BF59F8081C8907A6D57B
:100DD000D9F8001021F003010843C9F80000FFF71B
:100DE000B5FB064641F28837D9F80000616800F08B
:100DF0000C00B0EB810F15D0FFF7A8FB801BB842A9
:100E0000F2D9032001B0BDE8F08300BF59F8081CF7
:100E100089037FF584AFDBE759F8081C49057FF5A6
:100E20007EAFD5E7206800F0020100297FF43DAFD6
:100E300049E700BF42F20041C0F2F401D9F80400D2
:100E4000D9F80420C0F30210C2F306225143D9F8A6
:100E500004200130B1FBF0F0C2F34161022202EB49
:100E60004101B0FBF1F20AE042F20042C0F2F402AA
:100E700005E000BF002200210C283FF48EAFD9F816
:100E8000000042F69C41C0F30310C0F60001085C6C
:100E900000F01F0022FA00F140F20400C2F200004C
:100EA00040F208020068C2F20002116001B0BDE821
:100EB000F043FFF791BC000040F2080041F2080146
:100EC000C2F20000C4F202010068096842F6AC42B6
:100ED000C1F30221C0F60002515C01F01F01C840BD
:100EE0007047000040F2080041F20801C2F2000021
:100EF000C4F202010068096842F6AC42C1F3C221A3
:100F0000C0F60002515C01F01F01C84070470000AC
:100F100041F20C01C4F2020151F8040C10F00C0271
:100F2000086805D00C2A29D100F00300012825D13A
:100F300051F80C0C000703D4D1F88800000A02E035
:100F400051F80C0C000942F6B44300F00F00C0F653
:100F5000000353F82030002A184618BF00200C2A3E
:100F600018BF7047086800F00300022810D003285B
:100F700004BF41F20023C0F27A030DE0042A1FD01F
:100F8000082A23D141F20020C0F27A00704700BF46
:100F900042F20043C0F2F40308680A68C0F302108A
:100FA000C2F30622096801305A43B2FBF0F0C1F3E4
:100FB0004161022202EB4101B0FBF1F0704700BF3A
:100FC00042F20040C0F2F400704700BF002000234E
:100FD000C5E700002DE9F04383B0002800F0388316
:100FE00041F200060446C4F20206B068F1682278B5
:100FF00000F00C09D00601F003081DD42078C007CA
:1010000000F08180B9F1080F76D0B9F10C0F08BF5C
:10101000B8F1030F70D06068B0F5803F07D0B0F52D
:10102000A02F40F04B82306840F480203060306860
:1010300040F4803030604CE2B9F1000F1ED0B9F1BD
:101040000C0F08BFB8F1010F18D0A1693068002952
:1010500000F0968140F001003060FFF777FA054616
:101060003068800700F19E81FFF770FA401B02286C
:101070004FF00300F4D903B0BDE8F0833068800777
:1010800003D5A069002800F0E382256A30680007D4
:1010900000F13E81D6F89400000900F0F00085428E
:1010A00000F23C813068B9F1000F40F00800306078
:1010B000306820F0F00040EA050030607068E169B7
:1010C00020F47F4040EA0120706040F0AF82B06DB4
:1010D000C00000F14B82B06D40F08050B065B06D43
:1010E00000F0805002900298FFF748FCB16D21F0AB
:1010F0008051B1653CE200BF3068800303D5606871
:10110000002800F0A582207880072DD5B9F1040FC2
:101110001CD0B9F10C0F08BFB8F1020F16D0E1686E
:101120003068002900F0E48140F480703060FFF7FF
:101130000DFA0546306840050FD4FFF707FA401B4B
:1011400002284FF00300F5D995E700BF306840054D
:1011500003D5E068002800F07B827068216920F0E8
:10116000F85040EA016070602078000760D4207871
:10117000400775D42078800600F1AE80A06A002870
:1011800000F00C83022840F01F81F068E16A00F053
:1011900003028A4240F03081226B6FF00F0300F0AF
:1011A000700103EB0212914240F02681616B00F462
:1011B000FE42B2EB012F40F01F81A16B00F078429C
:1011C000B2EBC16F40F01881E26B0023CFF6E07301
:1011D00003EB025200F4C0016FF31402914240F09D
:1011E0000B81216C4FF07E4202EB016100F0C06088
:1011F00001F07E41884240F0FF803068800100F1BC
:10120000CD82306840F080703060F06840F08070CF
:10121000F060FFF79BF904463068800100F1BE8260
:10122000FFF794F9001B02284FF00300F4D922E7DE
:101230006169D6F89400002900F08C8040F001002C
:10124000C6F89400FFF782F9054600BFD6F894006F
:1012500080078CD4FFF77AF9401B0228F6D929E1E0
:10126000B06D10F0805808D1B06D40F08050B0657E
:10127000B06D00F080500090009847F20007C4F273
:1012800000073868C00513D4386840F480703860AF
:10129000FFF75CF9054600BF3868C00508D4FFF7C2
:1012A00055F9401B02284FF00300F5D9E3E600BFD3
:1012B000A068012808D0052840F0DE80D6F890000C
:1012C00040F00400C6F89000D6F8900040F001000D
:1012D000C6F89000DFE000BF616AD6F898000029E8
:1012E00000F0B48040F00100C6F89800FFF72EF936
:1012F000054600BFD6F8980080073FF53FAFFFF7DF
:1013000025F9401B02284FF00300F3D9B3E600BFD4
:10131000306800F0F00085427FF6C4AEB06DC000CA
:1013200000F18680B06D40F08050B065B06D00F087
:10133000805001900198FFF721FBB16D21F08051A1
:10134000B165B0F5007F79D0802D40F2E3800320B5
:10135000EBE000BF20F00100C6F89400FFF7F6F8BC
:10136000054600BFD6F8940080077FF500AFFFF771
:10137000EDF8401B02284FF00300F3D97BE600BFD5
:1013800020F001003060FFF7E1F805463068800783
:101390007FF534AEFFF7DAF8401B02284FF0030068
:1013A000F4D968E6306840F0080030603068D4E96D
:1013B000072120F0F00008433060706820F47F407F
:1013C00040EA0220706019E6B9F10C0F00F040818C
:1013D000306820F080703060FFF7B8F8044600BF36
:1013E0003068800140F1EE80FFF7B0F8001B022862
:1013F0004FF00300F4D93EE6B9F10C0F00F028815C
:101400003068400100F12481306820F08070306045
:10141000FFF79CF805463068800140F18181FFF7B5
:1014200095F8401B02284FF00300F4D923E600BFD3
:10143000FFF7A4FAB0F5007F7FF486AF812D73D358
:101440000120A02D88BF02206FE000BF20F0010026
:10145000C6F89800FFF77AF8054600BFD6F898005E
:1014600080077FF58BAEFFF771F8401B02284FF025
:101470000300F3D9FFE500BFD6F89010002821F053
:101480000101C6F89010D6F8901021F00401C6F8BA
:10149000901000F07B80FFF759F8054641F288373D
:1014A000D6F89000800700F18380FFF74FF8401BCB
:1014B000B842F5D9032003B0BDE8F08331680028B5
:1014C00021F480313160316821F48021316000F0F5
:1014D0008580FFF73BF80546306880033FF513AE83
:1014E000FFF734F8401B64284FF00300F4D9C2E53D
:1014F00020F480703060FFF729F805463068400519
:101500007FF532AEFFF722F8401B02284FF00300B0
:10151000F4D9B0E5A5F17000B0FA80F04009802D53
:1015200008BF022001E000BF002042F20001C4F227
:1015300002010A6822F0070202440A60096801F009
:101540000701814240F08480306840F0080030603C
:101550003068D4E9072120F0F0000843306070685B
:1015600020F47F4040EA022070605FE0FFF706FA57
:10157000B0F5007F06D1812D40D30120A02D88BF7A
:10158000022045E0802D3BD9032041E0FEF7DEFF3D
:10159000054641F28837D6F89000800708D5FEF757
:1015A000D5FF401BB8424FF00300F4D963E500BFFC
:1015B000B8F1000F7FF4DEADB06D20F08050B06563
:1015C000D8E500BFF0684FF6FC71CFF6EE61084039
:1015D000F060002003B0BDE8F08300BFFEF7B6FF67
:1015E0000546306880037FF58EADFEF7AFFF401BE8
:1015F00064284FF00300F4D93DE500BF002007E068
:10160000A5F17000B0FA80F04009802D08BF0220DB
:1016100042F20001C4F202010A6822F00702024409
:101620000A60096801F00701814211D1B068F168D0
:1016300010F00C0005D00C282AD101F0030101297B
:1016400026D13168090707D4D6F89410090A05E0B5
:10165000012003B0BDE8F0833168090942F6B442C5
:1016600001F00F01C0F6000252F8211000280A46CE
:1016700018BF00220C2837D1F06800F003000228C0
:1016800010D0032804BF41F20021C0F27A010DE01E
:1016900004281FD0082823D141F20022C0F27A0288
:1016A00022E000BF42F20041C0F2F401F068F268AB
:1016B000C0F30210C2F306225143F2680130B1FBBD
:1016C000F0F0C2F34161022202EB4101B0FBF1F202
:1016D0000AE000BF42F20042C0F2F40204E000BFA0
:1016E000002200210C28C7D0B06842F69C41C0F30C
:1016F0000310C0F60001085C00F01F0022FA00F1A0
:1017000040F20400C2F2000040F208020068C2F297
:1017100000021160FFF760F800287FF4ACAC6DE4C4
:10172000F06848F28C01C0F29D1104F12C0700EA28
:10173000010C8ECF6FF00F00D4E90F5400EB0210B4
:101740000022CFF6E07241EA0C0102EB0552084399
:101750006FF314024FF07E4540EA032005EB046569
:10176000104305F07E4540EAC7602843F0603068CA
:1017700040F080703060F06840F08070F060FEF7FC
:10178000E5FE04463068800108D4FEF7DFFE001B4A
:1017900002284FF00300F5D96DE400BF002003B02C
:1017A000BDE8F083002804BF01207047B0B50446AF
:1017B000406A28B10020206104F1140006E000BF57
:1017C0006068B0F5827F03D004F11C000021016045
:1017D0000025A56294F85D0020B9204684F85C508D
:1017E00000F04EF8022084F85D002068D4F80CE088
:1017F0000268BEF5E06F22F0400202604EF4006223
:1018000098BF0125B2F5706F1CBF0023A3624FEA99
:10181000053CD4E90135D4E9042103F4827305F4CD
:1018200004452B4402F002021A44A36901F00101AD
:10183000E569114403F40072114405F03802256A89
:10184000114405F08002A56A114405F400521143C9
:1018500001600421626A0EF4706501EA1341636B52
:1018600045EA0C0502F01002294303F00803114376
:101870001943416000200121206684F85D10B0BD4D
:1018800080B586B0006843F20001C4F201018842CD
:1018900002D006B080BD00BF41F24C00C4F202008D
:1018A000416941F480514161416901F480510191E4
:1018B0000199016841F001010160006801A900F08F
:1018C000010001900198C2200190022002900020A6
:1018D000039003200490052005904FF09040FEF700
:1018E00045FD06B080BD0000411E0020B0EB116F29
:1018F0001CBF012070474EF21002CEF20002516070
:101900004EF62351CEF20001F0230B7007219060B8
:10191000116070477047000070470000704700007A
:10192000B0B502680446D069156840F62F01936887
:101930000140202905F0200E0AD1BEF1000F07D08A
:10194000A16E00293CD02046BDE8B040084700BF4A
:1019500040F60F01084209D040F22011C0F20041C8
:1019600003F0010C294011EB0C0115D1216E012966
:1019700005D110F0100118BF15F0100122D1C102DD
:1019800014D513F4800111D04FF480112046116258
:10199000BDE8B040FFF7C0BFC10718BF15F48071A4
:1019A00040F09881810700F19F81A8E1010640F194
:1019B000978015F0800100F09380E16E0029C2D17C
:1019C000B0BD00BF102010629068400600F1C080DA
:1019D000B4F85800B4F85A10B4F85A30002B1CBFB1
:1019E000401A5FEA0041EBD052E8001F226821F460
:1019F000907142E80013FBB1216851E8001F226892
:101A000021F4907142E80013B3B1216851E8001F3E
:101A1000226821F4907142E800136BB1216851E80B
:101A2000001F226821F4907142E8001323B121685D
:101A300051E8001FDAE700BF216851E8021F226861
:101A400021F0010142E80213DBB1216851E8021FD5
:101A5000226821F0010142E8021393B1216851E8A4
:101A6000021F226821F0010142E802134BB12168F4
:101A700051E8021F226821F0010142E80213002B05
:101A8000DAD12021C4F8801000212166A1662168E6
:101A900051E8001F226821F0100142E80013DBB179
:101AA000216851E8001F226821F0100142E800136C
:101AB00093B1216851E8001F226821F0100142E82B
:101AC00000134BB1216851E8001F226821F010017A
:101AD00042E80013002BDAD1022281B215E200BFE6
:101AE00040067FF56DAF15F0400008BFB0BD52E86D
:101AF000000F00BF216820F0400041E80002002AEA
:101B000000F0E881206850E8000F216820F04000D4
:101B100041E80002002A00F0DD81206850E8000F53
:101B2000216820F0400041E80002002A00F0D28144
:101B3000206850E8000F216820F0400041E80002D2
:101B4000002A00F0C781206850E8000FD2E700BFEC
:101B5000606FD0F800C0DCF80430B4F8580099B2D7
:101B6000002900F0C981814280F0C681A4F85A3072
:101B7000DCF80000800600F19F8052E8000F216829
:101B800020F4807041E80002F2B1206850E8000FB4
:101B9000216820F4807041E80002AAB1206850E872
:101BA000000F216820F4807041E8000262B12068D3
:101BB00050E8000F216820F4807041E800021AB15B
:101BC000206850E8000FDAE7206850E8020F21682B
:101BD00020F0010041E80202BAB3206850E8020F89
:101BE000216820F0010041E8020272B3206850E849
:101BF000020F216820F0010041E802022AB32068A8
:101C000050E8020F216820F0010041E80202002A9A
:101C1000DAD11AE0206850E8020F216820F0400075
:101C200041E80202DAB1206850E8020F216820F092
:101C3000400041E8020292B1206850E8020F21689A
:101C400020F0400041E802024AB1206850E8020F4B
:101C5000216820F0400041E80202002ADAD1202069
:101C6000C4F8800000202066206850E8000F21683A
:101C700020F0100041E80002DAB1206850E8000FBF
:101C8000216820F0100041E8000292B1206850E87D
:101C9000000F216820F0100041E800024AB12068DE
:101CA00050E8000F216820F0100041E80002002AEF
:101CB000DAD1606FFEF708FB02206066B4F85800C6
:101CC000B4F85A10401A81B22046BDE8B040FFF780
:101CD00021BE00BF01211162D4F8841041F001013E
:101CE000C4F8841081070AD5BCF1000F07D0022187
:101CF0001162D4F8841041F00401C4F88410410743
:101D00000AD5BCF1000F07D004211162D4F8841069
:101D100041F00201C4F8841001070AD55EEA0C0103
:101D200007D008211162D4F8841041F00801C4F8EA
:101D3000841001050BD515F0806108D04FF40061C7
:101D40001162D4F8841041F02001C4F88410D4F852
:101D5000841000293FF434AE10F0200018BFBEF10B
:101D6000000F40F0C180D4F88400916800F0280092
:101D700001F04001401807D12046FFF7CFFD0020B9
:101D8000C4F88400B0BD00BF52E8000F216820F401
:101D9000907041E80002D2B3206850E8000F21683B
:101DA00020F4907041E800028AB3206850E8000FE8
:101DB000216820F4907041E8000242B3206850E8A6
:101DC000000F216820F4907041E80002FAB1206809
:101DD00050E8000FDAE700BF206850E8020F2168E2
:101DE00020F0010041E80202DAB1206850E8020F59
:101DF000216820F0010041E8020292B1206850E819
:101E0000020F216820F0010041E802024AB1206877
:101E100050E8020F216820F0010041E80202002A88
:101E2000DAD1206E012824D1206850E8000F216803
:101E300020F0100041E80002DAB1206850E8000FFD
:101E4000216820F0100041E8000292B1206850E8BB
:101E5000000F216820F0100041E800024AB120681C
:101E600050E8000F216820F0100041E80002002A2D
:101E7000DAD120200021C4F8800021662068A16604
:101E8000816849065AD550E8020F216820F04000C9
:101E900041E80202002A3FD0206850E8020F216882
:101EA00020F0400041E80202B2B3206850E8020F7F
:101EB000216820F0400041E802026AB3206850E83F
:101EC000020F216820F0400041E8020222B320689E
:101ED000D9E700BF20200021E0672046E166BDE889
:101EE000B04000F0E5B800BFA16E00293FF43BAF61
:101EF00020468847226836E788427FF461ADDCF8E7
:101F0000000080067FF55CAD022220466266BDE8D7
:101F1000B040FFF7FFBC00BF606F78B142F29D4157
:101F2000C0F600018163FEF7F5F900283FF448ADE3
:101F3000606F816BBDE8B040084700BF2046BDE838
:101F4000B040FFF7EBBC000010B5C8B10446C06F4D
:101F500028B9002084F87800204600F025F82420D5
:101F6000E0672068616A026822F00102026011B134
:101F7000204600F06BF9204600F098FA012801D1C4
:101F8000012010BD2168486820F4904048608868AE
:101F900020F02A008860086840F0010220460A60AC
:101FA000BDE8104000F0C6B910B59EB00446002050
:101FB0001D90CDE91B00CDE9190002A85C21FEF7B8
:101FC0003CF9206844F20041C4F2000188423FD04D
:101FD00043F60001C4F20101884266D1012002905B
:101FE00002A8FEF7D3FC002818BFFEF767F941F2FC
:101FF0004C00C4F20200416941F4804141614169F1
:1020000001F4804101910199016841F001010160F1
:10201000006819A900F00100019001984FF4C06018
:10202000199002201A9000201B9003201C9007207A
:102030001D904FF09040FEF799F9252000210022D5
:10204000FEF71AFC2520FEF707FC1EB010BD00BFEE
:10205000022402A80294FEF799FC002818BFFEF79C
:102060002DF941F24C00C4F20200C16841F4003184
:10207000C160C16801F4003101910199016841F02A
:1020800001010160006819A900F0010001900198A8
:102090000C20CDE9190400201B9003201C90072080
:1020A0001D904FF09040FEF761F91EB010BD00008A
:1020B00070470000FEE70000FEE70000FEE70000BA
:1020C00070470000F0B581B041F20007C4F202078A
:1020D000FA680D469107044614D0F868216800F0AC
:1020E000030088424FF0010040F09F80002900F07B
:1020F0009C80F8686168C0F302100130884232D1D8
:1021000034E000BF206803280CD0022816D0012834
:1021100029D13968012211F0020182EA510116D158
:1021200020E000BF3968890310D43968012211F416
:10213000802182EA91410AD114E000BF396801226E
:1021400011F4806182EA912101D10BE00021FA684B
:10215000636822F073026FF00F0606EB031310435F
:102160001843F86011B1012001B0F0BD386820F0CB
:1021700080603860FEF7EAF9064600BF3868000163
:1021800006D5FEF7E3F9801B0228F7D944E000BF2B
:10219000012D0DD0F5B9386948F2FF01C0F2FF7189
:1021A0000840D4E9021240EA012040EAC26022E07D
:1021B00048F2FF013869CFF6FF112269002301F1CF
:1021C000B461CFF6E0730840A16803EB02526FF3ED
:1021D00014020DE0386948F2FF016269CFF6FF1181
:1021E0004FF07E430840A16803EB026202F07E429A
:1021F00040EA012010433861386840F08060386060
:10220000FEF7A4F9054600BF3868000108D4FEF7C0
:102210009DF9401B0228F7D9032001B0F0BD00BF93
:10222000A069396908433861002001B0F0BD0000A1
:1022300070470000FEF7B2BA4EF68850CEF20000AA
:10224000016841F4700101607047000080B5416A87
:102250000A070DD4CA0716D18A071FD44A0728D403
:10226000CA0631D48A063AD44A0658D542E000BF9D
:102270000268D0F834C0536823F4004343EA0C03E7
:102280005360CA07E8D00268D0F828C0536823F426
:10229000003343EA0C0353608A07DFD50268D0F8A5
:1022A0002CC0536823F4803343EA0C0353604A077D
:1022B000D6D50268D0F830C0536823F4802343EAAF
:1022C0000C035360CA06CDD50268D0F838C09368B5
:1022D00023F4805343EA0C0393608A06C4D5026852
:1022E000D0F83CC0936823F4005343EA0C03936096
:1022F0004A0614D50268D0F840C05368BCF5801F68
:1023000023F4801343EA0C03536008D1D2F804C0CD
:10231000D0F844E02CF4C00343EA0E0353600906EE
:1023200058BF80BD0168806C4A6822F400221043C7
:10233000486080BDB0B582B004460020C4F8840077
:10234000FEF704F9216805460A68120735D56FF0D3
:102350007E4C20464FF4001100222B46CDF800C0E1
:1023600000F0BCF940B300BF206850E8000F2168BE
:1023700020F0800041E80002DAB1206850E8000F48
:10238000216820F0800041E8000292B1206850E806
:10239000000F216820F0800041E800024AB1206867
:1023A00050E8000F216820F0800041E80002002A78
:1023B000DAD12020E0675FE021680868400761D536
:1023C0006FF07E4C20464FF4800100222B46CDF862
:1023D00000C000F083F9002854D000BF206850E806
:1023E000000F216820F4907041E80002E2B12068FB
:1023F00050E8000F216820F4907041E800029AB183
:10240000206850E8000F216820F4907041E8000235
:1024100052B1206850E8000F216820F4907041E824
:102420000002002ADAD100BF206850E8020F2168BC
:1024300020F0010041E80202DAB1206850E8020F02
:10244000216820F0010041E8020292B1206850E8C2
:10245000020F216820F0010041E802024AB1206821
:1024600050E8020F216820F0010041E80202002A32
:10247000DAD12020C4F880000320002184F87810ED
:1024800002B0B0BD2020E067C4F8800000202066C4
:102490006066002184F8781002B0B0BD806A002127
:1024A000A0F85A10A0F85210FFF738BAB0B5054698
:1024B0002A69D5E9021300680A436969D5F81CE066
:1024C0001143026846F6F314CEF6FF7441EA0E019A
:1024D000224011430160416848F2000C21F4405150
:1024E00019434160AA69C4F2000C60451CBF296A07
:1024F0000A438168102321F430611143816047F65B
:10250000FF71C4F20001884212DC44F20041C4F2BF
:10251000000188421CD044F60001C4F20001884248
:102520002CD141F28801C4F2020109680B091DE0B7
:10253000604515D043F60001C4F2010188421DD167
:1025400041F28801C4F202010B6860A212E000BFF0
:1025500041F28801C4F2020109688B0806E000BF5D
:1025600041F28801C4F2020109688B0A42F6E44292
:10257000C0F6000203F0030152F82130604542F238
:102580000040C0F2F40015D0BEF5004F22D1082B58
:102590004FF0010100F29580DFE803F006546093EC
:1025A000589393935E0000BFFEF786FC002855D138
:1025B0004FE000BF082B4FF0010100F28280DFE8FE
:1025C00003F0058023801B8080802100FEF774FCCF
:1025D000D0B914E0082B4FF0010100F27280DFE85F
:1025E00003F005535F70577070705D00FEF764FC78
:1025F000002855D14FE000BFFEF78AFC20B900212A
:102600005FE000BF4FF400406A6802EB420188427D
:102610004FF0010155D31303984252D8010E000226
:1026200010EB520041F100010023FDF7CBFD4FF606
:102630000052A0F54071C0F20F0291423BD301213C
:102640003FE000BFFEF74EFC40B902E0FEF760FC41
:1026500020B9002135E000BF4FF4004069684A0806
:1026600002EB4000B0FBF1F04FF6EF72A0F1100169
:10267000914207D84FF6F0710140C0F34200084480
:1026800019E000BF01211CE0FEF72CFC40B902E07C
:10269000FEF73EFC20B9002113E000BF4FF40040DC
:1026A00069684FF6EF7200EB5100B0FBF1F0A0F15A
:1026B0001001914204D82968C860002101E000BFE0
:1026C000012100220846AA66EA66B0BD01000000AA
:1026D0000400000002000000080000002DE9F041A5
:1026E000804600681546C2690E461140891BB1FA42
:1026F00081F14909A94223D1069C2CB3611C29D13F
:10270000C1693140891BB1FA81F14909A94217D148
:10271000C1693140891BB1FA81F14909A9420FD140
:10272000C1693140891BB1FA81F14909A94207D138
:10273000C1693140891BB1FA81F14909A942DFD051
:102740000020BDE8F08100BFFDF700FF0320BDE8D9
:10275000F08100BF1F4607E0C0693040801BB0FA1F
:1027600080F04009A842EBD1FDF7F0FEC01BA0426B
:1027700000F2B080D8F8000001684907ECD5402E7F
:10278000EAD0802EE8D0C169090700F1A780C169AD
:102790000905E1D54FF40061016250E8000FD8F857
:1027A000001020F4907041E80002002A45D0D8F8CB
:1027B000000050E8000FD8F8001020F4907041E8B5
:1027C0000002D2B3D8F8000050E8000FD8F800108B
:1027D00020F4907041E800027AB3D8F8000050E885
:1027E000000FD8F8001020F4907041E8000222B3E6
:1027F000D8F80000D1E700BFD8F8000050E8020F79
:10280000D8F8001020F0010041E802020AB3D8F81D
:10281000000050E8020FD8F8001020F0010041E855
:102820000202B2B1D8F8000050E8020FD8F8001048
:1028300020F0010041E802025AB1D8F8000050E847
:10284000020FD8F8001020F0010041E80202002A2F
:10285000D2D1D8F8600001282CD1D8F8000050E877
:10286000000FD8F8001020F0100041E800020AB371
:10287000D8F8000050E8000FD8F8001020F0100041
:1028800041E80002B2B1D8F8000050E8000FD8F8D3
:10289000001020F0100041E800025AB1D8F8000002
:1028A00050E8000FD8F8001020F0100041E80002B6
:1028B000002AD2D120200021C8F88000C8F860107A
:1028C000C8F86810C8F88400032088F87810BDE8BC
:1028D000F08100BF0320BDE8F08100BF0821016244
:1028E00050E8000FD8F8001020F4907041E8000282
:1028F000002A44D0D8F8000050E8000FD8F80010A3
:1029000020F4907041E80002CAB3D8F8000050E803
:10291000000FD8F8001020F4907041E8000272B364
:10292000D8F8000050E8000FD8F8001020F490709C
:1029300041E800021AB3D8F80000D1E7D8F8000047
:1029400050E8020FD8F8001020F0010041E8020220
:102950000AB3D8F8000050E8020FD8F8001020F0B1
:10296000010041E80202B2B1D8F8000050E8020FBD
:10297000D8F8001020F0010041E802025AB1D8F85E
:10298000000050E8020FD8F8001020F0010041E8E4
:102990000202002AD2D1D8F8600001282CD1D8F840
:1029A000000050E8000FD8F8001020F0100041E8B7
:1029B00000020AB3D8F8000050E8000FD8F8001061
:1029C00020F0100041E80002B2B1D8F8000050E851
:1029D000000FD8F8001020F0100041E800025AB1B2
:1029E000D8F8000050E8000FD8F8001020F01000D0
:1029F00041E80002002AD2D12020C8F8800000203F
:102A00000821C8F86000C8F86800C8F8841088F881
:102A100078000120BDE8F08140F21C10C2F20000F5
:102A2000FEF77EBFFEE7000096B0FDF7C5FE05A8E5
:102A300004302421FDF701FC4FF40070FDF758FF2E
:102A400020B1EFF3108072B6FEE700BF10206021C6
:102A5000059001200D9102210B90CDE90F101190EE
:102A60002820129007200024CDE9130105A80C941A
:102A70001591FEF7AFFA28B1EFF3108072B600BFE0
:102A8000FEE700BF0F2000900320CDE90104684657
:102A90000421CDE90344FEF7D1F828B1EFF310800B
:102AA00072B600BFFEE700BF41F24C00C4F2020064
:102AB000016844F2004441F0800101600168C4F201
:102AC000000401F08001059105990168002641F09C
:102AD0000101016001680C2301F0010105910599D4
:102AE00001684FF4E13241F002010160006804F531
:102AF000744100F002000590059840F21C10C2F2EB
:102B0000000080E84600C0E90366C0E90536C0E978
:102B100007664662FFF718FA20B1EFF3108072B62D
:102B2000FEE700BF40F2100042F6811504F5805127
:102B3000C2F200000122C0F2F10580E86200C0E9A3
:102B40000326C0E90566C0E90766FDF74FFD28B119
:102B5000EFF3108072B600BFFEE700BF40F2100036
:102B6000C2F200000021FDF7F7FC28B1EFF310805E
:102B700072B600BFFEE700BF40F21000C2F20000D4
:102B800000210026FDF70EFD20B1EFF3108072B694
:102B9000FEE700BF40F2640004F5A051C2F200005D
:102BA000012280E86200C0E90326C0E90566C0E9A9
:102BB0000766FDF71BFD28B1EFF3108072B600BF6A
:102BC000FEE700BF40F26400C2F200000021FDF702
:102BD000C3FC28B1EFF3108072B600BFFEE700BF60
:102BE00040F26400C2F2000000210025FDF7DAFC8B
:102BF00020B1EFF3108072B6FEE700BF40F2B800DC
:102C000004F56C41C2F200004FF4827280E82600A5
:102C100000F114014FF440734FF400764FF0180C9C
:102C200081E8601007210822C0E90335C0E9085592
:102C3000C0E90A51C0E90C52FEF7B4FD20B1EFF330
:102C4000108072B6FEE700BF40F2A410C2F200008E
:102C50004FF4E13100220C23C0E90041C0E9022217
:102C6000C0E90423C0E90622C0E90822FFF76CF995
:102C700020B1EFF3108072B6FEE700BFFEE702E07E
:102C800008C8121F08C1002AFAD1704770470020F7
:102C900001E001C1121F002AFBD1704700000000B3
:102CA00000000000010203040607080900000000FC
:102CB00001020304A0860100400D0300801A0600F3
:102CC00000350C0040420F0080841E0000093D00CA
:102CD00000127A000024F40000366E010048E8017A
:102CE000006CDC0200000000040000000200000094
:102CF00008000000182D000800000020100000004F
:102D00007E2C0008282D000810000020200600005E
:102D10008E2C0008000000000100000010000000E0
:082D200000093D000000000065
:040000050800018D61
:00000001FF
